:020000040800F2
:1000000078F700209D0100083B2D00080D22000814
:10001000392D00080F0A0008E73B00080000000027
:10002000000000000000000000000000F52E0008A5
:10003000C10A0008000000003D2D0008F72E00084E
:10004000B7010008B7010008B7010008B7010008B0
:10005000B7010008B7010008B7010008B7010008A0
:10006000B7010008B7010008B7010008B701000890
:10007000B7010008B7010008B7010008B701000880
:10008000B7010008B7010008B7010008B701000870
:10009000B7010008B7010008B7010008B701000860
:1000A000B7010008B7010008B7010008B701000850
:1000B000B7010008B7010008B7010008B701000840
:1000C000B7010008B7010008B7010008B701000830
:1000D000B7010008B7010008B7010008B701000820
:1000E000B7010008B7010008B7010008B701000810
:1000F000B7010008B7010008B7010008B701000800
:10010000B7010008B7010008B7010008B7010008EF
:10011000B7010008B7010008A12F0008B7010008C7
:10012000B7010008B7010008B7010008110A00086C
:10013000B7010008B7010008B7010008B7010008BF
:10014000B7010008B7010008B7010008B7010008AF
:10015000B7010008B7010008B7010008B70100089F
:10016000B7010008B7010008B7010008B70100088F
:10017000B7010008B7010008B7010008000000003F
:10018000B7010008B7010008DFF80CD000F086FBCB
:1001900000480047CD63020878F7002006488047F2
:1001A00006480047FEE7FEE7FEE7FEE7FEE7FEE75C
:1001B000FEE7FEE7FEE7FEE7912F00088901000851
:1001C0002DE9F05F0546002092469B46884606468C
:1001D000814640241BE0284641464746224600F01F
:1001E000FEF853465A46C01A914110D3114618469C
:1001F000224600F0E5F82D1A67EB01084F4622462B
:100200000120002100F0DCF817EB00094E41201E10
:10021000A4F10104DFDC484631462A464346BDE8E6
:10022000F09F10B5431A934209D28318881803E04F
:1002300010F8011D03F8011D521EF9D210BD40EA4D
:1002400001039B0703D009E008C9121F08C0042A54
:10025000FAD203E011F8013B00F8013B521EF9D23B
:1002600010BDD2B201E000F8012B491EFBD270474D
:100270000022F6E710B513460A4604461946FFF772
:10028000F0FF204610BD421C10F8011B0029FBD1D5
:10029000801A704710B5002200E0521C835C8C5C11
:1002A000A34201D1002BF8D1D8B2E1B2401A10BD5F
:1002B000034611F8012B00F8012B002AF9D118464A
:1002C00070470EB540F2334102910021CDE9001193
:1002D0000A460B4600F0A2F803B000BDC1F30A5273
:1002E00010B5C1F3130140F2FF3341F480119A427B
:1002F00001DA002010BD40F233439A42A2F23342A9
:1003000003DC524200F06BF810BD904010BD00F0CD
:10031000004230F000400AD0C10D01F56071C0F319
:10032000160042EA0151C2084007114370470020FD
:100330000146704730B5041E71F1000404DB4FF034
:100340000044404264EB0101141E73F1000405DB1C
:100350001C464FF00043524263EB04038B4208BF3C
:10036000824230BD30B5041E71F1000404DB4FF051
:100370000044404264EB0101141E73F1000405DBEC
:100380001C464FF00043524263EB0403994208BFFE
:10039000904230BD30B50B4601460020202201249A
:1003A00009E021FA02F59D4205D303FA02F5491B43
:1003B00004FA02F52844151EA2F10102F1DC30BD59
:1003C000202A04DB203A00FA02F100207047914015
:1003D000C2F1200320FA03F3194390407047202A0A
:1003E00004DB203A21FA02F00021704721FA02F3DF
:1003F000D040C2F12002914008431946704710B521
:10040000141E73F1000408DA401C41F10001921837
:100410005B411A4301D120F0010010BD2DE9F04DE0
:1004200092469B4611B1B1FA81F202E0B0FA80F235
:1004300020329046FFF7C4FF04460F4640EA0A0008
:1004400041EA0B0153465A46084313D0114653EA7A
:10045000010019D0C8F140025046FFF7C0FF054621
:100460000E46504659464246FFF7AAFF084305D0BC
:10047000012004E020463946BDE8F08D0020054308
:1004800046EAE0762C4337430A986305E40AA0EB7A
:1004900008000022FD0A44EA47540A3002D5002031
:1004A0000146E9E7010510196941DDE90845001930
:1004B0006941BDE8F04DA2E72DE9FE4F804681EA93
:1004C0000300C00F0C46009021F0004123F00045CE
:1004D000B8EB0200A94105D24046214690461C4691
:1004E0000B46024623F00040104347D0270DC7F3C8
:1004F0000A00C3F30A510290401A019040286BDAB7
:10050000C3F3130040F4801B0098924620B10023EF
:10051000D2EB030A63EB0B0B01985946C0F1400282
:100520005046FFF74DFF06460D4650465946019A84
:1005300000F0C6F910EB08006141002487EA11526F
:1005400084EAE7731A4340D0009A62B3019A012A01
:100550004FEA075215DC001B61EB02014FF000422D
:1005600002EA0752CDE90042001C41F580113246F3
:100570002B46FFF753FF03B0BDE8F08F40462146FE
:10058000F9E7001B61EB0201001C41F58013001824
:100590005B412018A2F5001747EB030140EAD57034
:1005A000B6196D4111E06D084FEA360645EAC0758F
:1005B0004FEA0752001B61EB0201001C41F580115C
:1005C00049084FEA30000019514132462B4603B02A
:1005D000BDE8F04FFFF713BF009801224000002351
:1005E000D0EB020263EBE073009821464FEAE0741F
:1005F000B8EB000061EB0401E9E783F000435BE73F
:1006000081F0004158E72DE9FE4F81EA030404F030
:10061000004421F0004100944FF0000B23F0004310
:1006200050EA01045ED052EA03045BD0C3F30A54DB
:10063000C1F30A552C44A4F2F3340194A0FB0254F4
:10064000C1F3130141F48011C3F3130343F4801386
:1006500001FB024400FB034E840A970A44EA8154DA
:1006600047EA8357A4FB076802958D0A05FB0785B7
:100670004FEA932C04FB0C542705029D4FEA0658C1
:1006800047EA1637B5EB08056EEB070C870E920E9E
:1006900047EA811742EA8312A7FB0201B6EB0B017E
:1006A00064EB00042B0D43EA0C335E1844EB1C5042
:1006B000DA465146E7FB0201C5F313044FEA0B3358
:1006C00043EA14534FEA0432019C43EA0603A4F1BF
:1006D0000C040294009CCDE900B4FFF79FFE03B028
:1006E000BDE8F08F00200146F9E72DE9F04D81EAE1
:1006F000030404F0004B21F0004514464FF0000ABB
:1007000023F0004150EA050220D054EA01021DD036
:10071000C5F30A570246C5F31303C1F31300C1F32F
:100720000A5640F4801543F48013A7EB0608101B0B
:10073000D64608F2FD3873EB050002D308F1010834
:1007400001E092185B41B8F1000F03DA0020014686
:10075000BDE8F08D00204FF48011064684460EE07F
:10076000171B73EB050705D3121B63EB0503064349
:100770004CEA010C49084FEA300092185B4150EAFC
:100780000107EDD152EA030012D082EA040083EAA5
:100790000501084305D0101BAB4106D201220023FE
:1007A00006E000224FF0004302E06FF00102531018
:1007B0001AEB06004CEB085110EB0A0041EB0B0161
:1007C000BDE8F04DFFF71BBE2DE9F04D00231A46A2
:1007D0001B1A8A4103DB00200146BDE8F08DC1F3FE
:1007E0000A52C1F3130141F480154FF0000BD107F9
:1007F00002D100186D41521E0027044640F2FF113D
:10080000384601EB620A3E468046024600204FF41D
:100810008011FFF7E4FDC2197141BB1846EB0100DE
:10082000B4EB030C75EB000C04D3E41A65EB000584
:1008300017460E46241908F101006D418046342800
:10084000E3DDF91946EB0600091BA84103D24FF07E
:10085000FF32134601E0002213461BEB070046EB74
:100860000A51BDE8F04DFFF7CABDC1F30A52C1F30A
:10087000130140F2FF3341F480119A4202DA002062
:100880000146704740F233439A42A2F2334202DCFF
:100890005242FFF7A4BDFFF793BD0000064C074D81
:1008A00006E0E06840F0010394E807009847103440
:1008B000AC42F6D3FFF76CFCAC620408CC620408CF
:1008C000202A06DBCB17203A41FA02F043EAE07314
:1008D00006E041FA02F3D040C2F120029140084301
:1008E0001946704770B58C1810F8015B15F00703B6
:1008F00001D110F8013B2A1106D110F8012B03E0B9
:1009000010F8016B01F8016B5B1EF9D12B0705D4C0
:100910000023521E0DD401F8013BFAE710F8013B09
:10092000CB1A921C03E013F8015B01F8015B521E25
:10093000F9D5A142D8D3002070BD2DE9F0410D4674
:100940000146002004464E1908E00702301B401EF5
:1009500080B200F007F8641C3844E4B2AC42F4D32F
:10096000BDE8F08110B5044601F014FD200AA02175
:1009700001EB4000C0B201F0D3FC01F05BFDE0B23E
:1009800001F0CEFC01F056FD01F004FDA12001F0C4
:10099000C7FC01F04FFD002001F08AFC044601F085
:1009A00021FD204610BD2DE9F04116460D460746B3
:1009B000002409E0E00025FA00F0C1B2381980B245
:1009C00000F006F8641CE4B2B442F3D3BDE8F08151
:1009D00070B50D46044601F0DDFC200AA02101EBB4
:1009E0004000C0B201F09CFC01F024FDE0B201F037
:1009F00097FC01F01FFD284601F092FC01F01AFD62
:100A000001F0F0FCBDE870400A2000F0D1B9FEE72B
:100A1000014800F05BB80000B8040020016818230A
:100A2000CAB2103AB2FBF3F2054B6FF30901032A85
:100A30009B5CC36500D9091D8165084670470000AD
:100A400094CA020810B5014600208B698A6A4FF0EB
:100A5000C07453B1B3F5005F15D072B1012A0CD048
:100A6000022A0AD0032A09D104E01AB1012A06D0C9
:100A7000022A03D1C96AC90100D5012010BDC96A83
:100A8000A142FAD010BD002AF7D0012AF2D0022AE2
:100A9000F3D0032AF3D010BD30B50468256825F4DF
:100AA00080252560046863608368402B036803D059
:100AB00099600068C26030BD9A600068C16030BD56
:100AC000704772B6FEE790F8350070472DE9F8439D
:100AD00004464FF00009CDF8009063484FF41651DA
:100AE000A56D0068B0FBF1F72E6894F85C10082043
:100AF00000FA01F131420FD021680A6852070BD584
:100B00000A6822F004020A6094F85C108840A86029
:100B1000606D40F00100606594F85C104FF00108D2
:100B200008FA01F0304208D021684969090604D565
:100B3000A860606D40F00200606594F85C100420CD
:100B40008840304208D021680968890704D5A86028
:100B5000606D40F00400606594F85C1010208840DF
:100B6000304218D021680968090714D5A8602068A8
:100B70000168490304D50068000308D5A16C07E0AB
:100B80000168C90503D4016821F008010160216CE6
:100B900009B12046884794F85C10202088403042F4
:100BA00031D021680968C9062DD5A86094F83500B0
:100BB00005282068016806D0490347D5006800036E
:100BC0001DD4616C1CE021F01601016020684169B0
:100BD00021F080014161206C08B9A06C20B120682F
:100BE000016821F00801016094F85C103F20884002
:100BF000A86084F8358084F83490216D1FE0E16BA3
:100C000009B120468847606D00282BD0606DC00771
:100C100014D0052084F835002068016821F0010116
:100C200001600098401C0090B84203D8206800681A
:100C3000C007F6D184F8358084F83490E16C00293F
:100C400010D001B02046BDE8F04308470168C9054F
:100C5000D5D4016821F01001016084F8358084F852
:100C60003490CCE7BDE8F8830C0000202DE9F0417A
:100C7000044600F0B1F906465CB1022084F8350064
:100C8000002584F834502068016821F001010160DA
:100C90000DE00120BDE8F08100F09EF9801B0528E1
:100CA00005D920206065032084F83500F2E720682C
:100CB0000068C007F0D12268116820480140D4E9DB
:100CC00001031843D4E903363343184363691843D7
:100CD000A3691843E3691843236A18430843616A08
:100CE000042903D1D4E90B13194308431060206889
:100CF0004069666A20F0070130460E430127042848
:100D00000CD1A06A0643E06A40B12046FFF79AFE84
:100D100020B14020606584F83570BAE720684661EC
:100D20002046FFF77BFE94F85C203F2191408160D4
:100D3000656584F835700020ACE700003F8010F056
:100D40002DE9F0410446866D90F834000025012815
:100D50000DD0012084F8340094F835700020012F64
:100D600007D084F8340002252846BDE8F08102202F
:100D7000FBE7022784F8357060652046FFF78CFE9C
:100D800094F85C103F208840B0602068016841F012
:100D900016010160206C20B12068016841F0080153
:100DA00001602068016841F001010160DCE700009A
:100DB00070B5044600F010F90546601C02D00448E6
:100DC0000078044400F008F9401BA042FAD370BD3B
:100DD000000000202DE9F84FDFF8BCA1002201251A
:100DE00003264FF00F090AF1040BAAF1040E00BF0D
:100DF0000B6805FA02F42340A34270D10F7907F083
:100E00000307012F01D0022F16D187684FEA42084D
:100E100006FA08FC27EA0C07D1F80CC00CFA08FC0B
:100E20004CEA070CC0F808C04768A7430C79C4F324
:100E3000001494403C4344600C79E443A4070AD076
:100E4000C4684FEA420C06FA0CF7BC438F6807FAF5
:100E50000CF72743C7600C7904F00304022C12D16D
:100E6000D40800EB840CDCF820405707FF0E09FA89
:100E700007F824EA0804D1F8108008FA07F848EACD
:100E80000408CCF8208004684FEA420C06FA0CF7FC
:100E9000BC430F7907F0030707FA0CF727430760F5
:100EA0004C6814F4403F70D03C4C276847F48047AE
:100EB0002760246822F0030704F480440094384C2F
:100EC00007EB040CDCF8084897074FEA177809FA93
:100ED00008F7BC43334FB84202D1002724E054E066
:100EE000314FB84201D101271EE0304FB84201D145
:100EF000022719E02E4FB84201D1032714E02D4FED
:100F0000B84201D104270FE02B4FB84201D1052789
:100F10000AE02A4FB84201D1062705E0284FB8421F
:100F200001D1072700E0082707FA08F72743CCF884
:100F30000878DAF800405746D1F804C09C435FEACD
:100F4000CC2C00D51C433C60DBF800405F46D1F858
:100F500004C09C435FEA8C2C00D51C433C60DEF847
:100F600000407746D1F804C09C435FEA8C3C00D532
:100F70001C433C60084F083F3C68D1F804C09C43C8
:100F80005FEACC3C00D51C433C60521C102AFFF4A5
:100F90002FAFBDE8F88F0000083C01404438024004
:100FA00000300140000002400004024000080240FE
:100FB000000C0240001002400014024000180240E1
:100FC000001C02400069084000D0012070470AB1AF
:100FD000816170470904FBE70148806870470000A1
:100FE0000000002070B5040025D094F83D000025D5
:100FF00020B984F83C50204600F0B8F8242084F84A
:101000003D002068016821F001010160206801684D
:1010100041F4004101602068016821F40041016051
:1010200000F00CFA4D4A6168914201D84C4900E049
:101030004C49884201D2012070BD4B492368B0FB66
:10104000F1F15E6826F03F060E435E6063689342EE
:1010500006D94FF4967359434FF47A73B1FBF3F109
:101060002368491C1E6A26F03F06314319626168F5
:10107000914210D84900401EB0FBF1F2521CC2F35D
:101080000B02042A01D2042022E0B0FBF1F0401C44
:10109000C0F30B001CE0A268F2B301EBC10303EB49
:1010A0000116431EB3FBF6F35B1C43F480431B05A0
:1010B00049D092B301EBC10202EB0111401EB0FB1B
:1010C000F1F0401CC0F30B0040F4804040F40040BD
:1010D0002168CA694CF6FF739A431043C861D4E98A
:1010E000071001432068026822F0C002114301602A
:1010F000D4E9030101432068826848F2FF339A4330
:1011000011438160D4E9050108432168CA6822F0CF
:10111000FF021043C86001E00EE016E0206801689D
:1011200041F0010101602564202084F83D00256321
:1011300084F83E50002070BD01EB4106431EB3FB16
:10114000F6F35B1CB3E70120C2E701EB4101401E4F
:10115000B0FBF1F0401CC0F30B00B7E7A086010024
:1011600080841E0000093D0040420F0010B586B08B
:10117000044614216846FFF77BF81349206888422B
:1011800020D112480021026842F002020260006889
:1011900000F002000590C02000901220CDE901016E
:1011A000032003900420049069460948FFF712FECB
:1011B00006481030016841F400110160006800F435
:1011C0000010059006B010BD0054004030380240B9
:1011D000000402400248816802781144816070472F
:1011E000000000200B4810B5016841F40071016057
:1011F000016841F480610160016841F4807101601F
:10120000032000F06FF80F2000F006F800F024F83B
:10121000002010BD003C024070B50D4D04464FF457
:101220007A712878B1FBF0F00A490968B1FBF0F057
:1012300000F0D8FC48B9102C07D200222146501EDD
:1012400000F030F800206C6070BD012070BD00001F
:10125000000000200C0000200A4808B5016841F495
:1012600080410160006800F4804000900548001F44
:10127000016841F080510160006800F080500090EA
:1012800008BD000044380240002809DB00F01F02BE
:10129000012191404009800000F1E020C0F80011D8
:1012A00070470000F0B40E4B1B680C46C3F30223DA
:1012B000C3F10705042D00D90425191D072901D202
:1012C000002300E0DB1E012606FA05F1491E21403D
:1012D00099409E40761E16403143F0BC02F094BC0B
:1012E0000CED00E0064900F0070208684FF6FF0326
:1012F000184040EA0220034A10430860704700008B
:101300000CED00E00000FA052DE9F0470E4605005F
:1013100065D0DFF81481D8F80000F7B200F00700BC
:10132000B04207D288F80070D8F8000000F007003B
:10133000B04254D128683D4C810712D5400703D5EF
:10134000206840F4E05020602878000703D520682A
:1013500040F4604020602068A96820F0F000084355
:1013600020602878C0072DD03049686808390128E6
:1013700012D0022813D0032811D009688907002948
:101380002DDA216821F0030101432160FFF724FEDB
:10139000814641F2883A0EE009688903EFE709685F
:1013A0008901ECE7FFF718FEA0EB0901514502D9CE
:1013B0000320BDE8F0872068696800F00C00B0EBFE
:1013C000810FEFD1D8F80010404601F00701B1427B
:1013D00007D90770006800F00700B04201D0012073
:1013E000E7E72878400705D52068E96820F4E05051
:1013F000084320602878000706D52068296920F472
:10140000604040EAC100206000F038F82168084AD6
:10141000C1F30311515CC8400649086006480068E2
:10142000FFF7FAFE0020C4E7003C02400838024003
:101430009CCA02080C000020040000200448054952
:1014400000680968044AC1F38221515CC8407047B2
:101450000C00002008380240ACCA020804480549C4
:1014600000680968044AC1F34231515CC8407047C2
:101470000C00002008380240ACCA0208154810B51C
:10148000006810F00C02144813D01449042A0FD03D
:10149000082A0ED10F4C241F2268236802F03F0255
:1014A0005B0207D52068C0F38810A0FB010106E0AD
:1014B000084610BD2168C1F38811A1FB000100237B
:1014C000FEF77EFE2168C1F30141491C4900B0FBD3
:1014D000F1F010BD083802400024F40040787D018E
:1014E0002DE9F84F04006ED02078DFF84C93C00748
:1014F000A9F104054AD009F104000168C1F3810192
:10150000012908D00068C0F3810002280AD1D9F867
:101510000000400206D52868800337D5606800289F
:10152000E1D033E06068B0F5803F10D0B0F5A02F77
:10153000286810D020F480302860286820F48020AB
:1015400028606068A8B1FFF747FD06460DE02868EF
:1015500040F48030F4E740F480202860F7E700BFD3
:10156000FFF73AFD801B642873D828688003F7D5FD
:101570000CE0FFF731FD064605E000BFFFF72CFD4C
:10158000801B6428F0D828688003F7D42078DFF81F
:10159000AC8280074FF0000A3ED5A748001D0168C5
:1015A00011F00C0F08D00068C0F3810002280BD1A5
:1015B000D9F80000400207D42868800716D5E068F3
:1015C000012800D112E033E1E068B8B10120C8F889
:1015D0000000FFF701FD064605E000BFFFF7FCFC39
:1015E000801B0228C0D828688007F7D528682169A1
:1015F00020F0F80040EAC10028600DE0C8F800A023
:10160000FFF7EAFC064604E0FFF7E6FC801B022831
:101610001FD828688007F7D42078000722D5864F86
:1016200087486169703771B101210160FFF7D4FC0F
:10163000064604E0FFF7D0FC801B022809D8386872
:101640008007F7D50EE0C0F800A0FFF7C5FC0646FE
:1016500005E082E0FFF7C0FC801B02287DD83868D7
:101660008007F7D42078400768D5DFF8CCB1002791
:101670000BF13C0BDBF80000C0000BD4DBF80010D2
:1016800041F08051CBF80010DBF80000012700F09A
:10169000805000906B4E3068C00510D4306840F424
:1016A00080703060FFF798FC009005E0FFF794FC35
:1016B0000099401A022850D83068C005F6D55E4E11
:1016C000A0686C3601280FD00528306810D020F0B3
:1016D00001003060306820F004003060A068B8B1CC
:1016E000FFF77AFC00900FE0306840F00100F4E76B
:1016F00040F004003060F7E7FFF76EFC0099411AF4
:1017000041F28830814266D830688007F4D50EE017
:10171000FFF762FC009007E0FFF75EFC0099411ABA
:1017200041F28830814256D830688007F4D42FB116
:10173000DBF8001021F08051CBF80010A069C8B38D
:101740003D49091D0968C1F3810102294AD00228D7
:10175000504607D0C8F8600000E03CE0FFF73CFCD2
:1017600004463BE04746C8F86000FFF735FC0646F4
:1017700005E000BFFFF730FC801B02282BD828684B
:101780008001F7D4D4E907010843A16A2E4A490829
:1017900002EB0141626A41EA8211084394F82C107D
:1017A00040EA0161C9F8001001203866FFF714FC17
:1017B000044606E03EE000BFFFF70EFC001B0228D7
:1017C00009D828688001F7D534E000BFFFF704FC92
:1017D000001B022802D90320BDE8F88F2868800189
:1017E000F4D427E00128F7D0D9F80000E26900F42A
:1017F000800191421CD1226A00F03F01914217D131
:1018000047F6C071626A0140B1EB821F10D1A26A33
:101810004FF0FF3300F4403103EB5202B1EB024FC3
:1018200006D194F82C1000F07060B0EB016F01D07D
:101830000120D1E70020CFE70438024000004742F2
:10184000800E4742007000400000FFFF704770B5F7
:10185000040009D0606A002540B125616561A56278
:1018600094F8510040B10CE0012070BD6068B0F503
:10187000827FF4D0E561F2E784F85050204600F012
:1018800045F8022084F851002068016821F04001E9
:101890000160A088218900F4827001F404410843AA
:1018A000A18901F400610843217C01F00201084391
:1018B000217D01F001010843218B01F400710843EF
:1018C000217F01F03801084394F8201001F08001D5
:1018D0000843218D01F40051084321680860A06984
:1018E000042101EA104094F8241001F0100108438B
:1018F000216848602068C16921F40061C1616565A3
:10190000012084F85100002070BD000070B586B041
:10191000064614216846FEF7ABFC1F493068884232
:1019200038D11E480025016841F4805101600068EB
:1019300000F48050059019481438016841F0010105
:1019400001600068694600F001000590E020009009
:101950000220CDE9010503200390052004901048E2
:10196000FFF738FA104C0F4820604FF0C0606060FD
:101970004020C4E902050001C4E90405A561E56150
:10198000256220466562FFF771F908B1FFF799F803
:10199000B464A66306B070BD003001404438024014
:1019A0000000024058640240B80400202DE9F84FBE
:1019B000984616468A460446FFF70EFB814694F881
:1019C000510001281ED1BAF1000F73D0002E71D042
:1019D00094F85000012815D0012784F85070032096
:1019E00084F8510000256565C4F830A0A686E68617
:1019F000A563A587E58765642564A068B0F5004FF9
:101A000003D00CE00220BDE8F88F2068016821F0C7
:101A1000400101602068016841F480410160206854
:101A20000168490603D4016841F040010160E068A3
:101A3000B0F5006F606803D048B3012E27D047E0AF
:101A400008B1012E1FD1206B21680088C86006E014
:101A500020688168890709D5216B0988C160206BDE
:101A6000801C2063E08E401EE0860CE0FFF7B4FA95
:101A7000A0EB0901414503D3B8F1FF3F03D035E0A6
:101A8000B8F1000F32D0E08E0028E1D123E0206BC6
:101A900021680078087306E02068816889070AD504
:101AA000216B09780173206B401C2063E08E401E7F
:101AB000E0860DE02BE0FFF78FFAA0EB090141452E
:101AC00003D3B8F1FF3F03D010E0B8F1000F0DD001
:101AD000E08E0028E0D14A464146204601F078F9E0
:101AE00008B120206065A06830B109E084F8517029
:101AF00084F85050032086E72068C1688068009011
:101B000084F8517004F8505F60680028F3D0012019
:101B100079E7000070B5044690F8510001281CD107
:101B2000C9B1C2B194F85000012816D0012084F840
:101B30005000032084F85100002565652163A286CA
:101B4000E286A56365642564A587E587A068B0F58E
:101B5000004F04D00DE0012070BD022070BD206850
:101B6000016821F0400101602068016841F4804172
:101B70000160A16C17480864A16C1748C863A16C88
:101B80001648C864A06C0565E38E2268216B0C3290
:101B9000A06CFFF7D5F830B1606D40F010006065C3
:101BA00084F85050D7E720680168490603D40168DB
:101BB00041F04001016084F850502068416841F0D4
:101BC000200141602068416841F00201416000202D
:101BD00070BD0000612D00086B2D00083F2D00082E
:101BE0007047704710B5401EB0F1807F01D30120CF
:101BF00010BD4FF0E02460610F21601702F004F87F
:101C00000020A06107202061002010BD70477047B0
:101C100070B590F83C20012A32D0012480F83C4075
:101C2000022280F83D2003685A689D6822F0700601
:101C30000A6832435A60134B02689A4214D0B2F1D8
:101C4000804F11D0104B9A420ED0104B9A420BD0BD
:101C50000F4B9A4208D00F4B9A4205D00E4B9A4236
:101C600002D00E4B9A4204D1496825F080031943F3
:101C7000916080F83D40002180F83C10084670BD1E
:101C8000022070BD00000140000400400008004038
:101C9000000C0040000401400040014000180040DA
:101CA00010B5040003D094F83D0010B107E0012006
:101CB00010BD002084F83C00204600F01FF80220F0
:101CC00084F83D00211D206801F070F9012084F89E
:101CD000460084F83E0084F83F0084F8400084F811
:101CE000410084F8420084F8430084F8440084F8FA
:101CF000450084F83D00002010BD000008B50068D4
:101D00001149884209D11148016841F0010101607F
:101D1000006800F00100009008BD0D498842FBD129
:101D20000A48001F016841F01001016000680022AC
:101D300000F01000009011463620FFF7B3FABDE81E
:101D400008403620FFF7A0BA0000014044380240A6
:101D50000010004090F83D10012901D0012070478B
:101D6000022180F83D1000681149884214D0B0F17A
:101D7000804F11D00F4988420ED00F4988420BD0B6
:101D80000E49884208D00E49884205D00D49884244
:101D900002D00D49884204D1816801F0070106296B
:101DA00003D0016841F0010101600020704700008C
:101DB000000001400004004000080040000C00400A
:101DC00000040140004001400018004090F83D1020
:101DD000012901D001207047022180F83D100168DF
:101DE000CA6842F00102CA6000681149884214D0F2
:101DF000B0F1804F11D00F4988420ED00E49884271
:101E00000BD00E49884208D00D49884205D00D49B3
:101E1000884202D00C49884204D1816801F0070150
:101E2000062903D0016841F00101016000207047DC
:101E3000000001400004004000080040000C004089
:101E400000040140004001400018004001680A6A97
:101E500041F211131A4207D10A6A9B101A4203D1A8
:101E60000A6822F001020A60012180F83D1000207A
:101E7000704770B5044690F83C000025012817D043
:101E8000012684F83C60022084F83D0020688268C6
:101E900022F0770222F47F4282600868502838D00E
:101EA0000DDC20284FD005DC90B3102811D14AE07A
:101EB000022070BD302846D040280AD13BE060287F
:101EC0002FD070280DD0B0F5805F03D0B0F5005F43
:101ED00012D0012584F83D60002084F83C0028469B
:101EE00070BDCB68D1E90121206801F0CBF82068F2
:101EF000816841F0770109E0CB68D1E901212068D0
:101F000001F0C0F82068816841F480418160E1E718
:101F100019E0CA684968206801F0C6F850212068B5
:101F200006E0CA684968206801F0CFF8602120689F
:101F300001F0B2F8CEE7CA684968206801F0B4F849
:101F400040212068F4E7226801461046F0E7704718
:101F50002DE9F04104460068C66805694FF00007A6
:101F6000A90713D5B10711D5F91E0161012020770A
:101F7000206880698007204602D0FFF7E8FF04E070
:101F800000F07EF8204600F07CF82777680716D529
:101F9000700714D521686FF00400086102202077D3
:101FA0002068806910F4407F204602D0FFF7CFFF01
:101FB00004E000F065F8204600F063F82777280772
:101FC00015D5300713D521686FF00800086104208B
:101FD00020772068C0698007204602D0FFF7B7FF4E
:101FE00004E000F04DF8204600F04BF82777E806B3
:101FF00016D5F00614D521686FF01000086108208E
:1020000020772068C06910F4407F204602D0FFF797
:102010009EFF04E000F034F8204600F032F8277705
:10202000E80708D0F00706D021686FF001000861CA
:10203000204600F027F8280608D5300606D5216886
:102040006FF0800008612046FFF7E0FD680608D5C4
:10205000700606D521686FF040000861204600F048
:102060001BF8A8060AD5B00608D521686FF0200035
:1020700008612046BDE8F041FFF7C9BDBDE8F08129
:102080007047704700680349884202D1012023F05D
:1020900079BC704700100040704770B5040004D050
:1020A00094F84100002510B106E0012070BD84F8CD
:1020B0004050204600F024F8242084F84100206895
:1020C000C16821F40051C160204601F0CDFC2068B8
:1020D000016921F4904101612068416921F02A01E0
:1020E00041612068C16841F40051C16065642020ED
:1020F00084F8410084F842006563002070BD000050
:1021000010B586B0044614216846FEF7B1F81449AC
:102110002068884221D113480021026842F0100251
:102120000260006800F0100005900E481438026844
:1021300042F001020260006800F0010005904FF4D7
:10214000C06000900220CDE9010103200390072028
:10215000049069460448FEF73DFE06B010BD00003D
:102160000010014044380240000002402DE9F843CD
:10217000044690F84100984616460D46202802D0A5
:102180000220BDE8F88385B17EB100206064212083
:1021900084F84100FEF720FFA6848146E684A0680B
:1021A0002027B0F5805F02D003E00120E9E7206935
:1021B00010B12E4600250EE000260CE080212046BE
:1021C00001F0D8FCA8B9C6B116F8010B2168486027
:1021D000E08C401EE084E08C4B464FF00002CDF8CE
:1021E00000800028EAD14FF04001204601F0C2FCF7
:1021F00040B184F841700320C3E735F8020BC0F307
:102200000800E3E784F841700020BAE7FEE7000029
:1022100070B5124C4FF48075002229462046FEF717
:10222000D6FE206820F4402040F480202060002268
:1022300061152046FEF7CBFE022007F03BFD012290
:1022400029462046FEF7C3FE022007F033FD29464B
:102250002046BDE870400022FEF7B9BE00040240EF
:1022600070B5124C4FF48075002229462046FEF7C7
:10227000AEFE206820F4402040F48020206001223F
:1022800051022046FEF7A3FE022007F013FD0122B3
:1022900029462046FEF79BFE022007F00BFD29464B
:1022A0002046BDE870400022FEF791BE00040240C7
:1022B0002DE9F047194D80460024286820F440207D
:1022C00028602646AF154FF400790022394628468B
:1022D000FEF77DFE022007F0EDFC0122394628467C
:1022E000FEF775FE6006040E49462846FEF76AFEB4
:1022F00008B1641CE4B2012007F0DCFC761CF6B2E5
:10230000082EE2D3B8F1000F04D0FFF781FF20467A
:10231000BDE8F087FFF7A4FFF9E7000000040240E2
:102320002DE9F0411A4C06462046216821F440214F
:1023300041F480212160A71500223946FEF747FEAF
:1023400000254FF40078300601D5012200E000227C
:1023500041462046FEF73BFE7006060E022007F0BF
:10236000A9FC012239462046FEF731FE022007F083
:10237000A1FC002239462046FEF729FE022007F084
:1023800099FC6D1CEDB2082DDDD3BDE8F081000095
:102390000004024070B5124C206820F4402040F444
:1023A000802020600122550229462046FEF70FFEBC
:1023B0000122160231462046FEF709FE042007F0EE
:1023C00079FC002229462046FEF701FE042007F092
:1023D00071FC31462046BDE870400022FEF7F7BD93
:1023E0000004024070B5124C206820F4402040F4F4
:1023F00080202060A515002229462046FEF7E7FD33
:102400006615002231462046FEF7E1FD042007F064
:1024100051FC012229462046FEF7D9FD0122314612
:102420002046FEF7D4FDBDE87040042007F042BC12
:10243000000402402DE9F041174D0024286820F4E3
:10244000402028600122560231462846FEF7BFFD93
:10245000012007F02FFC0122170239462846FEF71B
:10246000B6FD012007F026FC08E0641CE4B2FA2C5B
:1024700004D9FFF7B7FF0120BDE8F08131462846B7
:10248000FEF7A0FD0028F0D1002239462846FEF7CD
:102490009EFD0020F0E700000004024001225103ED
:1024A0000148FEF794BD0000000402402DE9FC4104
:1024B0001A490A884B88010A8DF800108DF804002B
:1024C000002102FB03F4084600F08CFA144E0122AE
:1024D000910335463046FEF77AFD4FF4004800225E
:1024E00041462846FEF773FD00256F1E0CE03B4673
:1024F000012269460B48FFF759FA3B46012201A920
:102500000848FFF753FA6D1CA542F0D3012241465B
:102510003046FEF75CFDBDE8FC810000F0050020C0
:1025200000040240600400202DE9FE4F161ACDE998
:1025300000104FF000085D1A47464FF0FF30002EA4
:1025400002DD4FF0010102E003D14FF000018B46A4
:1025500002E08346C6F10006002D02DD4FF00100C7
:1025600002E003D14FF00000824602E08246C5F14E
:102570000005AE4201DD344600E02C46601C4FF001
:102580000009029019E000980C9A81B2019880B27B
:1025900000F018F8B0442F44A04504DD0198A8EBE2
:1025A000040858440190A74203DD00983F1B5044A3
:1025B000009009F101001FFA80F902998945E2DDD6
:1025C000BDE8FE8F10B514460B46024600F00AFA2D
:1025D0002046BDE8104000F02FBA00002DE9F0477A
:1025E000141A5D1A641C6D1CA4B2ADB26C43650074
:1025F000089E00F0F7F9DFF8788001229103444645
:102600004046FEF7E4FC4FF40049002249462046CC
:10261000FEF7DDFC4FF4005721E0BD4202D93C46F5
:10262000002002E02C46002007E036F8021B114B88
:102630000A0A1A541A18801C5170A042F5D30E4889
:10264000FEF741FA0128FAD1A2B20A490B48FFF776
:1026500061FA0948FEF737FA0128FAD12D1B002D3F
:10266000DBD149464046BDE8F0470122FEF7AFBC4A
:102670000004024000060020B8040020600400208E
:1026800010B500F023F9642007F005FBCF2000F01F
:1026900035F9002000F052F9D92000F04FF9302030
:1026A00000F04CF9ED2000F029F9642000F046F923
:1026B000032000F043F9122000F040F9812000F0DF
:1026C0003DF9E82000F01AF9852000F037F91020D4
:1026D00000F034F97A2000F031F9CB2000F00EF947
:1026E000392000F02BF92C2000F028F9002000F010
:1026F00025F9342000F022F9022000F01FF9F7201C
:1027000000F0FCF8202000F019F9EA2000F0F6F8BB
:10271000002000F013F9002000F010F9C02000F0B4
:10272000EDF81B2000F00AF9C12000F0E7F81220B4
:1027300000F004F9C52000F0E1F8082000F0FEF8F0
:10274000262000F0FBF8C72000F0D8F8B72000F0F2
:10275000F5F8362000F0D2F8082000F0EFF83A2023
:1027600000F0CCF8552000F0E9F8B12000F0C6F8F0
:10277000002000F0E3F81A2000F0E0F8B62000F0A6
:10278000BDF80A2000F0DAF8A22000F0D7F8F22015
:1027900000F0B4F8002000F0D1F8262000F0AEF8E8
:1027A000012000F0CBF8E02000F0A8F80F2000F0A6
:1027B000C5F81D2000F0C2F81A2000F0BFF80A206A
:1027C00000F0BCF80D2000F0B9F8072000F0B6F8D2
:1027D000492000F0B3F8662000F0B0F83B2000F08C
:1027E000ADF8072000F0AAF8112000F0A7F80120AA
:1027F00000F0A4F8092000F0A1F8052000F09EF8F0
:10280000042000F09BF8E12000F078F8002000F0B0
:1028100095F8182000F092F81D2000F08FF80220A3
:1028200000F08CF80F2000F089F8042000F086F802
:10283000362000F083F8132000F080F84C2000F0E0
:102840007DF8072000F07AF8132000F077F80F20C9
:1028500000F074F82E2000F071F82F2000F06EF8D0
:10286000052000F06BF82B2000F048F8002000F065
:1028700065F8002000F062F8012000F05FF83F20CA
:1028800000F05CF82A2000F039F8002000F056F83B
:10289000002000F053F8002000F050F8EF2000F086
:1028A0004DF8112000F02AF87820FEF781FA29204F
:1028B00000F024F8002000F061F8FFF7EFFDBDE81C
:1028C00010404FF6FF70FFF7F1BD000070B50A4DE4
:1028D0004FF48054002221462846FEF778FB322030
:1028E00007F0D9F9012221462846FEF770FBBDE822
:1028F0007040322007F0CFB90004024031B50D4CD2
:1029000000224FF480412046FEF761FB4FF4004562
:10291000002229462046FEF75AFB4FF0FF330122E2
:1029200069460548FFF742F8012229462046FEF78E
:102930004EFB38BD000402406004002031B50D4C50
:10294000012291032046FEF742FB4FF4004500228E
:1029500029462046FEF73BFB4FF0FF330122694634
:102960000548FFF723F8012229462046FEF72FFBF2
:1029700038BD00000004024060040020184910B572
:102980002A224A812B228A812C220A81F0224FF4AA
:10299000A07378B1012814D0022819D003281ED1C1
:1029A0000B804A803620FFF7A9FFA820BDE8104021
:1029B000FFF7C4BF0A804B803620FFF79FFF082037
:1029C000F4E70B804A803620FFF798FF6820EDE798
:1029D0000A804B803620FFF791FFC820E6E710BD44
:1029E000F00500202DE9F04107461C4615460E462D
:1029F0002A20FFF783FF380AFFF7A0FFF8B2FFF79E
:102A00009DFF280AFFF79AFFE8B2FFF797FF2B20F8
:102A1000FFF774FF300AFFF791FFF0B2FFF78EFF68
:102A2000200AFFF78BFFE0B2FFF788FFBDE8F04117
:102A30002C20FFF763BF0000F1B5114C0122910378
:102A40002046FEF7C4FA4FF40045002229462046EE
:102A5000FEF7BDFA4FF0FF363346012209480DF16B
:102A60000101FEF7A3FF3346012269460548FEF740
:102A70009DFF012229462046FEF7A9FAF8BD000075
:102A80000004024060040020094808B5016841F4D0
:102A9000800101600068002200F48000009011466F
:102AA0003B20FEF7FFFBBDE808403B20FEF7ECBBF8
:102AB000303802402DE9F04786B014216846FDF712
:102AC000D7FB3C480025016841F004010160016822
:102AD00001F004010591016841F080010160016885
:102AE00001F080010591016841F001010160016878
:102AF00001F001010591016841F0020101600168E6
:102B000001F002010591016841F0200101600068B7
:102B1000DFF8A48000F0200005900122202140462B
:102B2000FEF755FADFF894A001224FF2013150462A
:102B3000FEF74DFA0122DFF88890D7023946484661
:102B4000FEF745FA2020012402268DE8710069462F
:102B50004046FEF73FF901AA009482E870006946FA
:102B60005046FEF737F90620CDE900056946029484
:102B70005046FEF72FF901AA009782E870006946D7
:102B80004846FEF727F94FF47040CDE9000402945F
:102B9000694650460394FEF71DF94FF44070CDE9A5
:102BA0000004CDE9024669465046FEF713F906B027
:102BB000BDE8F087303802400008024000040240BF
:102BC000001402400D4810B50B4901600C494160EA
:102BD00000214FF480428160C0E9031241618161AC
:102BE000C1610162FEF7FEF9002803D0BDE8104084
:102BF000FDF767BF10BD0000005400400C0400202A
:102C0000A0860100104810B50E4901604FF4827192
:102C1000416000218160C1604FF400720161C0E930
:102C200005120822C0E90721416281620A21C162BE
:102C3000FEF70DFE002803D0BDE81040FDF741BFB0
:102C400010BD0000003001406004002010B586B0C7
:102C500000241748009401940294039404941349A7
:102C600005940160A721C0E901144FF6FF71C0E986
:102C7000031444618461FFF713F808B1FDF721FFE5
:102C80004FF48050009069460948FFF7F2F808B108
:102C9000FDF717FF049404A905480594FEF7B8FF53
:102CA000002801D0FDF70DFF06B010BD0000014067
:102CB000180500201CB500240E4800940C4901940E
:102CC0000160A721C0E9011440F2E7318461C160CD
:102CD000FEF7E6FF08B1FDF7F4FE009469460548EB
:102CE0000194FEF795FF002801D0FDF7EAFE1CBD18
:102CF000001000406005002010B50120FEF758F8D4
:102D00000C480B490C2201604FF4E1314160002175
:102D10008160C160C0E904128161C161FFF7BDF942
:102D2000002803D0BDE81040FDF7CBBE10BD000069
:102D300000100140A8050020FEE7FEE7704710B52F
:102D4000806B01684A6822F003024A60416D41F0DD
:102D500010014165012180F85110FEF777FD10BD8B
:102D600010B5806BFEF73DFF10BD38B50546846B8E
:102D7000FEF732F9024628680068C00523D42068AF
:102D8000416821F0200141602068416821F0020182
:102D900041606421204600F01BF818B1606D40F0DE
:102DA00020006065A068002118B92068C2688068AA
:102DB0000090E186012084F85100606D18B1204632
:102DC000FEF744FD38BD2046FEF70AFF38BD00007F
:102DD000F8B515460E460B46009204460122022124
:102DE00000F02CF8A0B9134813490068B0FBF1F0CB
:102DF0004FF47A71484300906068B0F5827F0DD13E
:102E00003346002280212046009500F017F870B16B
:102E1000606D40F0200060650320F8BD009830B17F
:102E2000401E009020688068C0430006F6D5002050
:102E3000F8BD00000C00002000366E012DE9F843BB
:102E40001E46914688460446089DFEF7C5F8401B7D
:102E5000351AFEF7C1F8074625480068C0F3CB30A5
:102E6000684338E0701C37D0FEF7B6F8C01BA842A4
:102E700003D215B1009860B32CE02068416821F0BE
:102E8000E00141606068B0F5827F0BD1A068B0F5C9
:102E9000004F02D0B0F5806F04D12068016821F0A6
:102EA00040010160A06AB0F5005F09D120680168A7
:102EB00021F4005101602068016841F40051016073
:102EC000012084F85100002084F850000320BDE860
:102ED000F8830025401E00902068816838EA0100D0
:102EE00004D000214945BDD10020F0E70121F9E7D8
:102EF0000C0000207047FEF76DB9000030B593B0AC
:102F000030216846FDF7B4F914210CA8FDF7B0F99B
:102F10001D480025016841F080510160006800F003
:102F2000805011901948016841F4804101600068A7
:102F3000022400F48040119001200390102004909E
:102F4000009406940820CDE90750A820CDE9090493
:102F500004200B906846FEF7C3FA08B172B6FEE78C
:102F60000CA90F2081E831004FF4A0500F904FF4CE
:102F70008050109005210CA8FEF7C6F9002801D05A
:102F800072B6FEE713B030BD40380240007000401A
:102F90000248016841F470010160704788ED00E06B
:102FA0000148FEF7D5BF000060050020F0B50268BB
:102FB000294C2A4D2A4E2B4F2B4B4FF0804CA042D0
:102FC00009D0604507D0A84205D0B04203D0B8422E
:102FD00001D0984204D122F0700E4A6842EA0E02F3
:102FE000A0421BD0604519D0A84217D0B04215D0DE
:102FF000B84213D0984211D01C4DA8420ED01C4D9F
:10300000A8420BD01B4DA84208D01B4DA84205D0AA
:103010001A4DA84202D01A4DA84203D122F440759D
:10302000CA682A434D6922F080022A4302608A68F6
:10303000C2620A688262A04201D0984201D1096945
:103040000163012141610169C90703D0016921F0D0
:1030500001010161F0BD00000000014000040040DA
:1030600000080040000C0040000401400040014006
:10307000004401400048014000180040001C00408E
:103080000020004010B5846842EA032224F47F4403
:103090000A432243826010BD826822F070020A4314
:1030A00042F007018160704710B5036A046A24F09A
:1030B00001040462846924F0F00444EA021423F059
:1030C0000A020A438461026210BD10B5036A046AF1
:1030D00024F010040462846923F0A00324F47044F3
:1030E00044EA023243EA01118261016210BD00002C
:1030F0002DE9F04F00242DED028B85B02546CCA0A4
:1031000000F072FD14214FF47842084600F0F6F901
:10311000CBA000F069FDD14EDFF83C9301274FF0C2
:10312000900BA6F1040A4FF47A7871680120884761
:10313000307DB7EB901F51D120F040003075318ABF
:1031400068462DF8241000EB8400641C0025718A69
:10315000E4B24180052C41D2DFE804F0400314289A
:103160004E0014214FF6FF72084600F0C7F9B9F877
:1031700000004FF47842143880B2142100F0BEF9F8
:10318000B7A029E0B9F800004FF6FF72143880B2FA
:10319000142100F0B3F9B9F802004FF47842143862
:1031A00081B2142000F0AAF9B3A015E0B9F802002A
:1031B0004FF6FF72143881B2142000F09FF9B9F86D
:1031C00002004FF47842143881B2B9F80000143884
:1031D00080B200F093F9AEA000F006FD0A20FDF7E2
:1031E000E7FD6D1CADB245459FD900F0BDF905B0B6
:1031F000BDEC028BBDE8F08FBDF80000BDF80410F7
:10320000401A00D54042BDF80210BDF80620891AC8
:1032100000D54942404301FB0100FDF752F841EC63
:10322000100B00F001FD51EC100BFDF757F884B2C4
:10323000BDF80800BDF80C10411A00D54942BDF890
:103240000A00BDF80E20801A00D540424943404391
:103250000844FDF736F841EC100B00F0E5FC51ECAA
:10326000100BFDF73BF800EE104A80B20490F8EE28
:10327000400A00EE100AB8EE401A80EE810A10EE05
:10328000100AFDF744F841EC180B9FED870B53EC47
:10329000102BFDF74FF87DD39FED850B51EC180BEC
:1032A00053EC102BFDF75EF874D3002C72D0049809
:1032B00000286FD0BDF80430BDF80020F6EE001AEB
:1032C000981A00EE100AB9F800001A44F8EEC00A85
:1032D000A0F1280400EE104AB8EEC00A80EE201AD1
:1032E00000EE102AF8EE400A00EE100AB8EE400A8E
:1032F00086ED061A01EE600A20EE210ABDEEC00A34
:1033000010EE102A3284BDF80A30BDF80220B9F858
:1033100002109C1A00EE104AA1F128041A44F8EE9B
:10332000C00A00EE104AB8EEC02A82EE200A00EE73
:10333000902AB8EE602A00EE901AF8EE600A86ED48
:10334000070A40EE420A60EEA10AFDEEE00A10EE26
:10335000902AFDEEC10A728410EE902A002A00DA4B
:103360005242022A08DCBDEEC00A10EE102A002AE2
:1033700000DA5242022A46DD14391438002489B298
:1033800080B24FF6FF7200F0B9F814214FF4784282
:10339000084600E015E000F0B1F847A000F024FC7A
:1033A00027A000F021FC96F8240020B35FF0000075
:1033B00086F8240008B38AF800B0D0218AF80110FA
:1033C000B3E6B9F80210B9F8000014391438002433
:1033D00089B280B24FF6FF7200F090F814214FF4DA
:1033E0007842084600F08AF833A000F0FDFB14A0F4
:1033F00000F0FAFB99E60120DAE7D0218AF8001004
:103400008AF801B091E6B9F80210B9F80000143951
:10341000143889B280B24FF6FF7200F06FF830A016
:1034200000F0E2FB4046FDF7C3FC00F0DBF9DEE60E
:10343000BFAACABCBDF8D0D0D0A3D7BC2E0D0A00FD
:10344000506C6561736520746F75636820706F6977
:103450006E74312E0D0A0000F005002014000020CB
:10346000506C6561736520746F75636820706F6957
:103470006E74322E0D0A0000506C65617365207405
:103480006F75636820706F696E74332E0D0A0000CB
:10349000506C6561736520746F75636820706F6927
:1034A0006E74342E0D0A0000666666666666EE3F30
:1034B000CDCCCCCCCCCCF03F43616C6962726174F2
:1034C000696F6E206661696C65642120506C65616E
:1034D00073652074727920616761696E210D0A003D
:1034E000546F7563682053637265656E2041646A2A
:1034F000757374204F4B210D0A0000002DE9F8432D
:10350000054617460D30009282B2A5F10C000C461C
:1035100080B20B46FFF708F804F10D0083B21938AA
:1035200081B22A4610460097FEF7FEFF661C05F1A1
:103530000108B1B21FFA88F03A46FFF743F86D1E52
:10354000B1B2A8B23A46FFF73DF8641EA1B21FFA25
:1035500088F03A46FFF736F8A1B2A8B23A46BDE87D
:10356000F843FFF72FB8000010B535202DED028B82
:10357000FDF7F8F90A2803D00020BDEC028B10BD3E
:1035800004212820FDF7D9F900EE100A9FED178AD3
:10359000174CB8EEC00A04212C20C0EE080AC4ED76
:1035A000060AFDF7CAF900EE100A02213020B8EE33
:1035B000C00AC0EE080AC4ED070AFDF7BEF9208470
:1035C00002213220FDF7B9F960843420FDF7CAF9F1
:1035D0009022211F84F82400D02310B10A704B7070
:1035E00001E00B704A700120C7E7000020BCBE4C10
:1035F000140000200A489FED090A4FF4817180ED04
:10360000060A9FED080A80ED070A018440F2651161
:103610004184002180F824100120704753258ABD81
:10362000140000205B94B9BD2DE9F04100252A4E1D
:1036300007462C462A4601213046FDF7C8FC0022E9
:10364000F1142648FDF7C3FCDFF894800022202106
:103650004046FDF7BCFC384600F0B2F9062006F003
:1036600029FB002201213046FDF7B1FC012006F0C4
:1036700021FB012211463046FDF7A9FC012006F08E
:1036800019FB002201213046FDF7A1FC4FF6FF7720
:1036900007EA4404002201213046FDF798FC01208E
:1036A00006F008FB012211463046FDF790FC04218C
:1036B0003046FDF787FC08B1641CA4B26D1CEDB266
:1036C000102DE5D32409012220214046FDF77FFC7F
:1036D0002046BDE8F08100000004024000140240D2
:1036E00000080240FEB5064600256C463046FFF74E
:1036F0009BFF24F815006D1CADB2052DF6D30020FC
:10370000431C99B20CE000BF34F8102034F811507B
:10371000AA4203D924F8105024F81120491C89B278
:103720000529F1D398B20428EAD300215FF0010003
:1037300034F81020401C114480B289B20428F7D319
:103740000320B1FBF0F0FEBD70B5064C06460D46F9
:103750002078FFF7C7FF30806078FFF7C3FF28802D
:10376000012070BD100000207FB50C46054669465B
:1037700002A8FFF7E9FF00282FD001A903A8FFF74F
:10378000E3FF002829D0BDF80C30BDF80820934293
:1037900003D803F13200824205D39A421FD802F1C6
:1037A000320083421BD2BDF80410BDF800008142F4
:1037B00003D801F13206B04204D388420FD8323028
:1037C00081420CD2D01840082880BDF80000BDF816
:1037D0000410084440082080012004B070BD00207F
:1037E000FBE7000010B52C4C04222DED028B2820A5
:1037F00094ED060A9FED298A183420EE080ABDEEE2
:10380000C00A10EE101AFDF7CEF894ED010A04225A
:103810002C2020EE080ABDEEC00A10EE101AFDF7AB
:10382000C2F8B4F9081002223020FDF7BCF8B4F950
:103830000A1002223220FDF7B6F8217B3420FDF772
:10384000C7F80A213520FDF7C3F82068FCF75FFDB3
:1038500041EC100B12A053EC102B00F0C5F960687E
:10386000FCF755FD41EC100B12A053EC102B00F0AF
:10387000BBF9B4F9081014A000F0B6F9B4F90A10B5
:1038800016A000F0B1F9217B19A0BDEC028BBDE8B8
:10389000104000F0A9B900001400002020BCBE4C6C
:1038A00074705F6465762E78666163203D202566BE
:1038B0000D0A000074705F6465762E79666163207E
:1038C0003D2025660D0A000074705F6465762E78D1
:1038D0006F6666203D2025640D0A000074705F64E9
:1038E00065762E796F6666203D2025640D0A0000FE
:1038F00074705F6465762E746F7563687479706533
:10390000203D2025750D0A0070B5054602212A4884
:10391000FDF758FB294C30B1207D010640D520F041
:103920008000207543E0254800F11201103015B1E8
:10393000FFF71AFF2AE0FFF717FF38B3B4F92000AA
:1039400094ED061A00EE100A208AF8EEC00A00EE86
:10395000100AB8EE400A41EE000ABCEEE00A10EE92
:10396000100A2082B4F9220094ED071A00EE100A22
:10397000608A00EE900AB8EEC00AF8EE600A01EE26
:10398000200ABCEEC00A10EE100A6082207D0006FC
:103990000DD4C0202075208AA081608AE08106E0D5
:1039A0000020A081E0814FF6FF7020826082207DA0
:1039B00000F0800070BD00000004024014000020F0
:1039C0002DE9F041DFF84880124E054600244FF4FF
:1039D0000067280601D5012200E000223946404652
:1039E000FDF7F5FA6806050E002201213046FDF7C5
:1039F000EEFA012006F05EF9012211463046FDF78D
:103A0000E6FA641CE4B2082CE3D3BDE8F0810000C0
:103A1000001402400004024001680C3151E8002FFC
:103A200022F4907241E80023002BF5D10168143193
:103A300051E8002F22F0010241E80023002BF5D1CC
:103A4000016B012909D101680C3151E8002F22F0E6
:103A5000100241E80023002BF5D1202180F842100C
:103A6000002101637047000070B5044600680169D9
:103A7000E26821F44051114301612169A068E269C3
:103A800008436169114308432168CA6849F20C631D
:103A90009A430243CA6020684169A26921F44071D7
:103AA0001143416131492068884202D0304988423F
:103AB00002D1FDF7D3FC01E0FDF7C0FCE269002371
:103AC000192164253226B2F5004F626828D0A0FB88
:103AD0000101930F9200FCF773FB0146B0FBF5F078
:103AE0006FF01802504301EB800006EB0010B0FBB2
:103AF000F5F000F0F002B1FBF5F002EB0012B1FBC3
:103B0000F5F06FF01803584301EB800006EB00104E
:103B1000B0FBF5F000F00F0021681044886070BD24
:103B2000A0FB010192185B41FCF74AFB0146B0FB88
:103B3000F5F00201B1FBF5F06FF01803584301EB0B
:103B4000800006EBC000B0FBF5F000F0F80002EBDF
:103B50004002B1FBF5F0584301EB800006EBC000DA
:103B6000B0FBF5F000F00700D6E7000000100140C0
:103B7000001401402DE9F843984617460D460446C7
:103B8000089E24E0701C22D0FDF726FAA0EB080066
:103B9000B0421AD8CEB12068C168490717D5802D28
:103BA00015D0402D13D00168C94309070FD401680F
:103BB0000025406800902046FFF72EFF0820606433
:103BC00084F840500120BDE8F8830320FBE720681B
:103BD000006835EA000004D00020B842D2D00020AE
:103BE000F1E70120F9E7FEE70FB4054B10B503A993
:103BF000044A029801F022FE10BC5DF814FB00009C
:103C0000FD190108040400200907090E002804DB3F
:103C100000F1E02080F80014704700F00F0000F180
:103C2000E02080F8141D704700B52DED048BB0EE38
:103C3000409AF0EE609A83B051EC190BFCF7C4FD8A
:103C400041EC180B18EE100A18EE901A8DED008B4F
:103C5000002818BF0120084320F00040C0F17F6019
:103C600000F1E040C00F14D019EE101A19EE900ABE
:103C70008DED009B002918BF0121084320F0004072
:103C8000C0F17F6000F1E040C00F04BF012000F0F0
:103C900017F8B0EE480A03B0F0EE680ABDEC048BEA
:103CA00000BD02E008C8121F08C1002AFAD17047FF
:103CB0007047002001E001C1121F002AFBD17047AC
:103CC00001490860704700000804002070B50446F0
:103CD00000256FF02F0608E02068411C2160007865
:103CE00005EB850106EB410145182068007800F0DE
:103CF000C7F80028F0D1284670BD00002DE9FF5F0D
:103D000082B00021DDE90430020DDDF840B003434C
:103D100018D044F61050A2F2FF3242431514119805
:103D200001281FD0A5EB0B00401C5FEA000A4FF0F2
:103D300000064E4FDFF83891B046504615D5CAF10F
:103D4000000413E0119801244AA3012801D16FEA6D
:103D50000B010298119AC0E90031C0E9024206B095
:103D6000BDE8F09FCBF10000DFE704460021404AA8
:103D7000491842EB0450CDE9001012E0E00707D0EB
:103D800032463B4640464946FCF73DFC8046894664
:103D900032463B4610461946FCF735FC06460F46B0
:103DA0006410002CEAD1DDE90401DDE90023BAF159
:103DB000000F06DAFCF727FC42464B46FCF723FCD3
:103DC00005E0FCF792FC42464B46FCF78EFC0446AD
:103DD0000E460022284BFCF7C5FA03D84FF0FF30FF
:103DE000014607E00022254B20463146FCF764FBE4
:103DF000FCF73BFD102409E0002C0ADB0A2200231B
:103E0000FCF7DEF9039B30321A55641E50EA0102BA
:103E1000F2D1641C039AC4F111031444119A012ACB
:103E200003D0012208430DD10AE0084304D000204A
:103E30004FF0110B119072E7A3EB0B056D1E0DE017
:103E40005B4504DD4FF0000205F1010504E003DAF3
:103E50004FF00002A5F10105002AECD0029811995B
:103E6000C0E90231C0E9004579E7000000001440D4
:103E70000000F03F300000000000F0430000E03F91
:103E80003038092801D80120704700207047000011
:103E900010B54421074800F085FF00221E21064886
:103EA00021F0CAFD054CA06003F094F900202070B9
:103EB00010BD00009427002089720008B001002086
:103EC0002DE9F0470E46814617461146304600F070
:103ED0001CF94FF0FF3A00287DD0002239463046C9
:103EE00000F0BFF800284FF0000075D1B6F904804B
:103EF000B6F900305246A8EB0301491C0AFA81F1D9
:103F00000FFA81FAB6F906C0B6F90210ACEB010C53
:103F10000CF1010C02FA8CF2B7F802C012B2ACEB51
:103F2000010C0FFA8CFCBCF1000F0EDD63F30F04E3
:103F300068F30F0501EB0C0061F31F4460F31F45AC
:103F4000C9F800400120C9F80450B7F90610738879
:103F5000CB1AD21A12B2002A13DDB6F906309942F2
:103F60000FDA338863F30F04B38861F31F4463F3FC
:103F70000F05114461F31F4509EBC001401C0C60A3
:103F80004D60B7F90220B6F902108A4200DD1146F1
:103F9000B7F90630B6F90620934200DA1A463B8894
:103FA000B6F900C0521AA3EB0C031BB212B2002BDD
:103FB00010DD002A0EDD634463F30F058B1863F3F5
:103FC0001F456CF30F0409EBC00361F31F441C6031
:103FD0005D60401C01E01AE017E0B7F90430368854
:103FE0009F1BAAEB070636B2002E0EDD63F30F040B
:103FF00061F31F44334463F30F05114461F31F451C
:1040000009EBC001401C0C604D60BDE8F0875046D4
:10401000FBE770B5B1F90030B2F90040A34200DC13
:1040200023460380B1F90250B2F90240A54200DDF7
:104030002C464480B1F90460B2F90450AE4200DA73
:1040400035468580B1F90610B2F90620914200DBB1
:104050001146C1800120AB4201DC8C4200DD002012
:1040600070BDF8B50D460446B0F90000B1F9001076
:104070001646884247DBB4F90210B5F90220914296
:1040800041DBB4F90410B5F9042091423BDCB4F9EA
:104090000610B5F90620914235DC96B3ADF8000064
:1040A0006088ADF8020032466946284600F099F86B
:1040B000002827D0A088ADF800006088ADF8020085
:1040C00032466946284600F08CF800281AD020882D
:1040D000ADF80000E088ADF8020032466946284697
:1040E00000F07FF800280DD0A088ADF80000E0882F
:1040F000ADF8020032466946284600F072F8002802
:1041000000D00120F8BD0020F8BDB0F90020B1F9C1
:1041100004309A4213DCB0F90420B1F900309A421D
:104120000DDBB0F90220B1F906309A4207DCB0F994
:104130000600B1F90210884201DB0120704700201F
:104140007047F8B50D460446B0F90400B1F9001007
:104150001646884243DBB4F90600B5F902108842DE
:104160003DDBB4F90000B5F90410884237DCB4F93E
:104170000210B5F90620914231DC76B3ADF80000AB
:104180006088ADF8020032466946284600F029F8FA
:1041900018BBA088ADF800006088ADF80200324678
:1041A0006946284600F01DF8B8B92088ADF800002F
:1041B000E088ADF8020032466946284600F011F862
:1041C00058B9A088ADF80000E088ADF8020032468A
:1041D0006946284600F005F808B10020F8BD012026
:1041E000F8BD2DE9FC4114460E46B1F90020B0F9A6
:1041F000001005468A423ADBB5F90400824236DCFB
:10420000B6F90270B5F90220974230DBB5F90630F5
:104210009F422CDC002C75DD401A9A1A401C521C5F
:1042200000B212B200EBD07002EBD272401052100A
:10423000904200DB1046844200DD0446ADF80010D9
:10424000288800222044ADF804006888ADF80200F8
:10425000688831462044ADF806006846FFF7C1FF84
:1042600040B1BDF804002044ADF804003FE0002058
:10427000BDE8FC81E8880022001BADF80200E88858
:10428000ADF8060031466846FFF7ABFF28B1BDF830
:1042900004002044ADF8040011E0A8880022001BAF
:1042A000ADF80000A888ADF8040031466846FFF775
:1042B00098FF50B1BDF80000001BADF80000BDF83C
:1042C0000200001BADF8020016E06888ADF802009D
:1042D000688800222044ADF8060031466846FFF7A2
:1042E00080FF70B1BDF80000001BADF80000BDF804
:1042F00006002044ADF80600314668461EF020FF57
:10430000B6E7FFE70120B3E710B5B1F90040B2F915
:1043100000309C4200DA23460380B1F90240B2F932
:1043200002309C4200DA23464380B1F90440B2F9DE
:1043300004309C4200DD23468380B1F90610B2F9B7
:104340000620914200DC1146C18010BD2DE9F041EC
:104350008AB0074621F00CFB0026A34C05460096C8
:104360000FB1F86801E013F029FD606000691EF0EC
:10437000DBFD6068406908B11EF0D6FD6068C06969
:104380001EF0D2FD6068006A1EF0CEFD6068016913
:1043900091B11EF093FF24F01FFA23F045FF6068EF
:1043A000B0F85011E9B30068017CC9071FD0C0689C
:1043B0004068E0B1002715E0A0F850610AB0BDE800
:1043C000F081C11991F8301151B900F5AC7000F0CD
:1043D00040FD616801EBC7010A6B0260496B4160F7
:1043E0007F1CBFB26068B0F85011B942E9D860686C
:1043F0004FF4807130301AF041F86068202100F5E8
:1044000098701AF03BF86068A0F85061284621F0D7
:10441000A9FA009060680068436A13B122680099A5
:10442000984719F063FE00F02BF900F0FDF86F4D8E
:104430006F69D7BB19F003FC18F0FCFC074600229B
:104440007F211EF004FC12F0A3FD01460022384635
:104450001EF0ECFB13F011F80146002238461EF066
:10446000CDFC0022032138461EF0B4FC00220321BB
:1044700038461EF089FC0022032138461EF09BFCC2
:104480000022032138461EF09BFC002203213846FF
:104490001EF0AFFC56A1384619F052FB00231A4615
:1044A000062138461AF0F6FC6F61286821F05AFAA6
:1044B0004FF4967840450CD2206841F2883188420A
:1044C00034D96968009808446860A868401CA860EE
:1044D0002CE021F04DFA28606068406828B100683F
:1044E0004FF47A71B1FBF0F000E02120696809B95E
:1044F00001216960A968F1B14FF47A7251436A6889
:10450000B1FBF2F46E60AE60844200D904462869C3
:1045100020442861E868401CE86021F0BFFAC0F13F
:104520006403224633A1384619F041FB2E4D08356D
:104530006C6814B137E00446E4E719F080FB18F02A
:1045400079FC044600227F211EF081FB12F020FD41
:104550000146002220461EF069FB12F08EFF014644
:10456000002220461EF04AFC0022032120461EF0B5
:1045700031FC0022032120461EF006FC002203210C
:1045800020461EF018FC0022032120461EF018FCD5
:1045900017A1204619F0D4FA00231A460421204618
:1045A0001AF078FC6C60286821F0DCF940457FF651
:1045B00005AF21F0DDF9286002A819F02FFE04995B
:1045C0000298401A820A514200EB81206621B0FB1A
:1045D000F1F39DF821109DF82000CDE9000109A11B
:1045E000204619F0E4FAE9E66800002000260020E1
:1045F0003F0000002575204650530A2575252520CB
:104600004350550025752E2575206B422075736526
:104610006420282564202525290A2564252520666F
:104620007261672E0000000070B50A4D002400BFC3
:10463000C4EBC40655F8260008B119F0CBFD05EB14
:1046400086001C2119F01AFF641CE4B2042CEFD37D
:1046500070BD000070280020084949680AE04A68D7
:10466000824202D00A68824203D10A7E42F00102ED
:104670000A7649690029F2D1704700003C00002009
:10468000704700000421014800F08CBB88270020FF
:104690002021014800F086BBA02700202DE9FF4122
:1046A0000446DDE90A671D004FF0000002D1B6F5AF
:1046B000807F2BD0039001900290ADF80C100090F9
:1046C000ADF80410ADF80A20ADF80E203B46324696
:1046D000294668461EF094FC3B463246294601A80E
:1046E0001EF08EFC3B463246294602A81EF088FC8E
:1046F0003B463246294603A81EF082FCBDF9000065
:10470000BDF90430984209DA054608E02080491EC8
:104710006080A180521EE280BDE8FF811D46BDF988
:104720000820BDF90C108A4201DA164600E00E4658
:10473000B54203DA984206DB184604E08A4201DA01
:10474000104600E00846801E2080BDF90030BDF90B
:104750000420934201DD1D4600E01546BDF9080026
:10476000BDF90C10884201DD064600E00E46B54258
:1047700005DD934201DD194604E0114602E088425E
:1047800000DD0146891CA180BDF90230BDF906207B
:10479000934201DA1D4600E01546BDF90A00BDF955
:1047A0000E10884201DA064600E00E46B54205DAF0
:1047B000934201DA194604E0114602E0884200DA29
:1047C0000146891E6180BDF90230BDF90620934281
:1047D00001DD1D4600E01546BDF90A00BDF90E10C9
:1047E000884201DD064600E00E46B54205DD9342F3
:1047F00001DD194604E0114602E0884200DD014671
:10480000891CE18088E700002DE9F04115460E463D
:104810000746114C21F0ACF880462B46324639460B
:10482000204617F027FD20B10020A062E06950B1BA
:1048300010E02C21204619F021FE4FF00040A0622C
:104840000020BDE8F081404621F08CF8E06108B915
:104850000120E0612046F4E7C427002010B51421B0
:10486000074800F09FFA17F0CBFC40B10549016002
:1048700005494160054981600549C16010BDFEE7F9
:10488000AC270020D5BB010851BF010821C1010898
:10489000A1BB010870B50D4604461021284619F049
:1048A000EDFD20680078012804D0022807D00428F4
:1048B00007D008E0A08A2880E08A688003E0E068EA
:1048C00000E00A20686020684268002A03D0294678
:1048D000BDE87040104770BD2DE9FE430446808A54
:1048E00010B9E08A002874D0D4F82C805FEA080060
:1048F00010D120460CF063FB5FEA000869D0204627
:104900000EF0F8FE00220921404616F0ADFB60785B
:1049100080075ED44FF4807900274E46454600213B
:1049200028461CF02FFB384407B2002128461CF013
:1049300047FBC11700EB1160001210FB06F006B236
:1049400028461BF01BFB0500E9D10FB94E450CD0E2
:10495000784201B24FF4803090FBF6F002B26B4621
:1049600004F1140000951EF04BFBADF80450ADF8B7
:10497000085094F8400000F00F000328404616D07D
:104980001BF04EFC064640461BF004FB03460C2081
:104990000090B4F91610324640460BF0C9FEADF84F
:1049A000080040461BF048FBC10713D018E01BF07D
:1049B000CBFB064640461BF067FB024603200090F7
:1049C000B4F91410334640460BF0B2FEADF80400C3
:1049D000E7E736E0BDF90410002901DDADF8045029
:1049E000810705D4BDF90410002901DAADF804509F
:1049F000410705D4BDF90810002901DDADF80850C4
:104A0000000705D4BDF90800002801DAADF8085008
:104A100002AA01A9204624F015FABDF90820BDF923
:104A20000410404600F08AFA6078800709D4208B91
:104A3000BDF8041008442083608BBDF808100844BA
:104A40006083BDE8FE832DE9FC5F0446C06A5FEA2F
:104A5000000B71D094F8400000076DD017F09CFE59
:104A6000019000684021457E58461CF0D5FB4FF070
:104A7000000818B9A4F81E80A4F81C8058461BF042
:104A8000C1FB824658461BF0C4FB064694F8400022
:104A90004FF0640900F00F000C2802D003284CD01E
:104AA0009AE0A4F81C8056B1B4F91E50002717F004
:104AB00073FE00684946407EC0F1640022E0E08B4E
:104AC000C5F1640110FB01F191FBF9F0E083584658
:104AD0001BF060FA054658461BF0A2FB02460C206C
:104AE0000090B4F91E102B4658460BF021FEE083CF
:104AF000024600231EE07A1917B210FB05F292FB62
:104B0000F1F215B2002DF6D1ADF80070A4F81E80B8
:104B10006A460021204624F095F941F6FF72BDF95E
:104B20000030514258460CF0E1FBBDF80010012363
:104B3000084402B200214CE09AE0A4F81E80BAF1C9
:104B4000000F0AD0B4F91C50002717F025FE0068AA
:104B50004946407EC0F1640022E0A08BC5F16401AB
:104B600010FB01F191FBF9F0A08358461BF08CFA81
:104B7000054658461BF0E8FA034603200090B4F9B6
:104B80001C102A4658460BF0D3FDA0830146002393
:104B90001EE07A1917B210FB05F292FBF1F215B282
:104BA000002DF6D1ADF80070A4F81C8000226946F3
:104BB000204624F047F941F6FF72BDF9003051421A
:104BC00058460CF00BFBBDF800100123084401B25D
:104BD000002258461DF05CFCA08B002848D1E08BD9
:104BE000002845D1C6B958461BF01AFB0546584661
:104BF0001BF0D0F9002D06DC00280DDD002D02DAB7
:104C000001232A4604E0002806DA0123404202B2CA
:104C1000002158461DF03CFCBAF1000F19D158464E
:104C20001BF032FA054658461BF08EFA002D07DCC1
:104C300000280EDD002D03DA01230022294605E0BD
:104C4000002806DA01230022404201B258461DF036
:104C50001FFC0A215846019A16F006FA6078800770
:104C600006D414F8400F20F00F00207044F8148C84
:104C7000BDE8FC9F7FB50E46040003D113F09EF8FB
:104C800004002CD013F00EF9002828D094F8280046
:104C9000400724D4002506B3ADF80050ADF802500B
:104CA000204613F0A3F8401EADF80400204613F090
:104CB000E3F8401EADF806006A46314602A8FFF749
:104CC000A8F900280BD02068017C890708D5DDE908
:104CD0000001C4E90C01012029E0A4F850517FBD76
:104CE00082690AB102A9904700260AE004EBC601D6
:104CF000002202A83031FFF7B4F90028EFD1761C6A
:104D0000B6B2B4F85001B042F0D880B2202804D234
:104D100004EBC00002A9303004E0A4F8505104F1C3
:104D20003000694610F0FFFAB4F85001401CA4F8B6
:104D3000500160680028D2D020F05EFF7FBD70B5C2
:104D4000054600F012F804460CE02146284600F023
:104D50001EF806462146284600F0A2F8204619F023
:104D600039FA3446002CF0D170BD002800D04068DC
:104D7000704700B503460022FFF7F7FF03E018462F
:104D8000521C00F004F80100F9D1104600BD006883
:104D9000091D40587047006840587047002800D0EF
:104DA0008068704700224260C91C21F003018260C4
:104DB0000160704770B504460068083019F07EF94C
:104DC000050013D001460022204622F0B9F82946FA
:104DD0002046626822F0AEF8616819B12A46204682
:104DE00022F0AEF86560A06800B9A560284670BDE5
:104DF0002DE9F0410C4606000AD04CB1FFF7B5FF93
:104E0000A04208D13046FFF7D5FF051E01D01EE0B5
:104E10000020BDE8F0813068083019F04FF9051E18
:104E2000F7D030682A4607593046394622F082F8D2
:104E30003A462946304622F083F82A462146304633
:104E400022F07EF822462946304622F073F82846A2
:104E5000DFE770B504460068083019F02FF9050047
:104E600013D001460022204622F064F8294620464D
:104E7000A26822F065F8A16819B12A46204622F0FE
:104E800059F8A560606800B96560284670BD28B112
:104E9000416809B9806808B1002070470120704757
:104EA00070B504000DD0FFF760FF00228842204655
:104EB00008D1FFF76CFF6060011E01D000221EE0E8
:104EC000A26070BDFFF76AFF8842206808440AD1DB
:104ED0000168A16029B12046BDE87040002222F09F
:104EE00029B8626070BD05682046FFF750FF06468E
:104EF00002462946204622F01DF82A463146204621
:104F0000BDE8704022F01CB810B504460068826805
:104F10000AB12146904720680068002801D020602F
:104F2000F5E710BD8068002801D0B0F91600704781
:104F30008068002801D0807E8009704770B51646D1
:104F400005460C4651EA06001AD028461AF01CF90C
:104F5000A86801233246018A21440182A868418A57
:104F600031444182214628461CF0EAFC00220B21F4
:104F7000284616F079F8012803D128461CF03AFC9F
:104F8000012070BD77B581B00E46050017D06222B2
:104F90001BF026FF040012D0206880B1284631465D
:104FA00063221BF01DFF10F0FF0208D0236820468B
:104FB000039998470090BDF80000ADF80C000398E5
:104FC00004B070BD2DE9F047074692B0408C1A9EA0
:104FD00040F00800788490463A8499468A4632899F
:104FE00038461BF0FDFE0546A7F820903289514651
:104FF00038461BF0F5FE0446788CA54220F00800E8
:10500000788403D12904B1EB044F68D0A7F820803D
:105010003289514638461BF0E3FE05468046A7F824
:105020002090514638460DF0C1FB318900682A4670
:105030001FF0D2FA30890B2823D147F6FF794D456E
:1050400001D04C451DD138461CF09DF800EBD070C6
:10505000451038461AF051FF00EBD0704010C8459B
:1050600006D1691C431C994200DA00E019468846C3
:105070004C4506D1691C421C914201DA6C1C00E0CF
:1050800014461948FFF796FE05002BD02F60C5E99E
:1050900003843089A8806846C5F808A00FF0B6FBE5
:1050A0001248FF21CDE900501148029011480390A9
:1050B00000200890CDE9090130880B9070889DF898
:1050C000421040420C90F0680790002060F300010D
:1050D0008DF842103069069068460FF00BFC12B054
:1050E000BDE8F087FEE70000B8270020D1C2020823
:1050F000BDC4020819C4020814210148FFF752BEBA
:10510000B82700202DE9F84F00259046894606462D
:105110002C460427E5E000BFF16807EBC4000858FF
:1051200082017AD480B230EA090211D05FF0000225
:1051300030EA08000ED0002082426ED051F834A030
:105140006A46102150461EF0A9FF002871D103E0E5
:105150000122EDE70120EFE76A46112150461EF0DB
:105160009DFF002865D16A46122150461EF096FF29
:1051700000285ED16A46132150461EF08FFF00289A
:1051800057D16A46152150461EF088FF002850D19D
:105190006A46142150461EF081FFE8BB6A460A2188
:1051A00050461EF07BFFB8BB6A466B2150461EF08E
:1051B00075FF88BB6A466C2150461EF06FFF58BBD6
:1051C0006A46012150461EF069FF28BB6A46042149
:1051D00050461EF063FFF8B96A46022150461EF0A1
:1051E0005DFFC8B96A46032150461EF057FF98B9C3
:1051F0006A46052150461EF051FF68B96A460621ED
:1052000050461EF04BFF38B96A46322150461EF018
:1052100045FF08B96A4601E00BE061E06E215046A7
:105220001EF03CFF28B96A466D2150461EF036FF3D
:1052300010B10320BDE8F88F6A46692150461EF080
:105240002DFFE8BB6A466A2150461EF027FFB8BB17
:105250006A466E2150461EF021FF88BB6A466D21CA
:1052600050461EF01BFF58BB6A46372150461EF0C1
:1052700015FF28BB6A46382150461EF00FFFF8B9CB
:105280006A46352150461EF009FFC8B96A464021DA
:1052900050461EF003FF98B96A46452150461EF05D
:1052A000FDFE68B96A46412150461EF0F7FE38B946
:1052B0006A46422150461EF0F1FE08B96A4600E0F7
:1052C0000AE0432150461EF0E9FE28B96A4649210A
:1052D00050461EF0E3FE08B1022501E005B90125A4
:1052E000641C708CC0F30510A0423FF615AF284631
:1052F000A0E70000014840687047000068000020F7
:105300000549002048600861C860886008604861FD
:1053100002490860486070470026002070000020A5
:10532000C0F30410072800D907207047A0F57F417B
:10533000FF3905D0002804D0712803D208490AE0BB
:105340001F2070470749713880B2096829B1064AA1
:105350005268904201D2085C7047002070470000FC
:10536000500A0308DC010020F401002010B51821C8
:105370000348FFF717FD03490120087010BD000026
:1053800064270020FC0100202DE9F04190460C46E6
:10539000050015D0FAF777FF0A4F06462146BA688E
:1053A000284690470446BA68281941469047014666
:1053B000701A03E06218AA5C2A55641CA042F9D254
:1053C000BDE8F081100200202DE9F041094D904622
:1053D0000E466A681C46074619469047306020B161
:1053E00020686A68384400219047C8F80000BDE88A
:1053F000F0810000100200202DE9F04F87B08A46AE
:10540000DDE910581F4693460446002105B1298066
:105410005CB12078002809D0BAF1000F05D0002631
:1054200018F0060F15D0002004E0002007B0BDE8FA
:10543000F08F401C215C0A2904D00D2902D00029DC
:10544000F7D100E0401C002DF0D04FF0FF31298053
:10545000ECE75FEA887001D541F6FF778946084698
:105460008DF81410049127E00498CDF8189068B3D3
:105470004FF0000C05AA06ABCDF80CC0CDF80080AB
:10548000CDE9013220443B465A46514620F018FDF2
:1054900006997A1A314417B20EB288B104990144C0
:1054A000049120780A280BD00D2809D0605C0A28C6
:1054B0000FD00D280DD00846205C08B1002FD3DC9A
:1054C000049848B105B12E800498AFE74FF0010C65
:1054D000D0E7481C0490F3E7064A04A92046526826
:1054E0009047002DF0D001460022504615F0D0FE26
:1054F00006B2E8E7100200202DE9F0411746884681
:1055000006001ED0002F1CD0FAF7BDFE0446384618
:10551000FAF7B9FE050014D00B4A2C4441469268B4
:1055200030469047411903E0621BB25C3255641E5D
:10553000A142F9D930442A463946BDE8F04118F075
:105540005FBFBDE8F0810000100200200023027858
:10555000232902D0012A0DD00FE02AB10021012A0F
:1055600004D0022A04D008E0012101E0017004E027
:10557000017001E0202902D0012318467047022162
:10558000F6E72DE9F0410E468046024600213346FB
:10559000084620F0D3FE04460027401C18F08EFD7C
:1055A000050008D02F5533464246611C20F0C6FE48
:1055B0002846BDE8F081FEE72DE9F0471E46144677
:1055C0000D468246DDF8209015E000BF4FEA5408F2
:1055D00008FB0657394650464A469047002808DDE2
:1055E00044F30000C0EB540407EB0605A4F10104EA
:1055F00001E005DA4446002CE8D12046BDE8F087FA
:105600003846FBE72DE9FC5F9B460CAB8A4681469A
:10561000DDE9116093E81210DDE90F575FEA807849
:105620004FF030031AD45EB15FEAC07808D000F0C2
:105630000C0858EA0C0803D0761E01E00B55641CD8
:10564000BC4204D2202CF9D301E00B55641C5FEA64
:10565000C07803D0B44201D2202CF6D35FEAC068F0
:1056600025D55FEA40580AD44CB1BC4201D0B442BF
:1056700005D1641E03D0102D03D1641E04E0102D4B
:1056800002D0022D0AD00EE0850603D4202C1ED2B3
:10569000782506E0202C1AD2582502E0202C16D2BC
:1056A00062250D55641C202C11D20B55641C202C36
:1056B0000DD2BCF1000F01D02D2306E0430701D528
:1056C0002B2302E0030702D520230B55641CCDE9F0
:1056D00000BAC846154681468B46AA46800714D1B3
:1056E000274607E02A46DDE900316D1C2020C4462C
:1056F000E0477F1CB742F5D307E02A466D1C641EC5
:10570000DDE900311BF80400C047002CF5D15FEA49
:10571000897006D409E02A46DDE900316D1C20209D
:10572000C047A5EB0A00B042F5D32846BDE8FC9F70
:105730002DE9F04F8FB099468B46DDE91818DDE969
:105740001C63DDE91A4792468646002209B923F018
:105750001003580507AD00D5C9B1B1FBF4F004FB47
:105760001010C0B20A2801D2303009E05FEA836C21
:1057700002D54FF0410C01E04FF0610C60440A3853
:10578000B1FBF4F1A854521C09B1202AE5D3CDF89D
:105790000880CDE90563CDE90052CDE903474B46CA
:1057A000524659467046FFF72DFF0FB0BDE8F08F07
:1057B0002DE9FF4F8FB01CACDDE9239594E8030879
:1057C00020AC94E8C004002450EA010201D125F085
:1057D00010056A050DF11C0802D550EA010217D028
:1057E00032463B46FAF7ECFCD2B20A2A01D23032FA
:1057F00006E0AB0601D5412300E061231A440A3AD2
:1058000008F80420641C50EA010201D0202CE7D3E0
:10581000CDE90084CDF808B0CDE90595CDE9036A5E
:105820000FAF97E80F00FFF7EDFE13B0BDE8F08F64
:105830009A4200D288547047704700002DE9FF4F0C
:1058400095B09B468946064600250FE2252877D16C
:1058500000242746F84A0121059400E0044316F885
:10586000013F203B01FA03F01042F7D130782A289B
:1058700011D06FF02F033078A0F13002092A16D82A
:10588000059A44F0020402EB820203EB4202104448
:10589000761C0590EFE759F8042B0592002A03DAED
:1058A000504244F40054059044F00204761C3078D1
:1058B0002E2816D116F8010F44F004042A280DD022
:1058C0006FF02F023078A0F13003092B09D807EBD5
:1058D000870302EB4303C718761CF3E759F8047BF0
:1058E000761C30786C280FD006DC4C2817D068283E
:1058F0000DD06A2814D104E0742810D07A280FD172
:105900000DE044F400140AE044F4801401E044F48F
:1059100040147278824202D104F58014761C761C01
:10592000307866280BD013DC582877D009DC0028A3
:1059300075D04528F6D04628F4D047281AD19DE1E5
:1059400018E0632835D0642879D0652812D195E114
:10595000702873D008DC6728F1D069286FD06E28D2
:105960000DD06F2806D1B5E073282CD0752875D0DE
:10597000782874D05A46179990476D1C75E1C4F386
:105980000250022809D003280DD0D9F800100428AD
:105990000DD00D6009F1040967E1D9F80010EA178C
:1059A000C1E90052F6E7D9F800100D80F2E70D705A
:1059B000F0E719F8041B8DF8001000208DF80100A5
:1059C000EA46012003E059F804AB4FF0FF306107CD
:1059D0004FF0000102D40DE008F101018846B94200
:1059E0000FDA8045F8DB1AF808100029F4D108E036
:1059F00008F1010188468142FADB1AF808100029F3
:105A0000F6D105985B46A0EB080721463846179A61
:105A100000F094FA284400EB080507E04DE029E186
:105A20000DE01AF8010B5A4617999047B8F1010892
:105A3000F7D25B4621463846179A13E142E00A2224
:105A40000092C4F302524FF0000A022A08D059F81B
:105A500004CB032A4FEAEC710AD00DE029E02AE0DA
:105A600009F1070121F00702F2E802C1914609E0BD
:105A70000FFA8CFC4FEAEC71042A03D14FFA8CFC2C
:105A80004FEAEC71002907DA0A460021DCF1000C2C
:105A900061EB02012D2202E0220504D52B228DF8B4
:105AA0000420012203E0E20701D02022F7E790461C
:105AB00059E00A2102E010220DE010214FF0000A07
:105AC00000910BE010224FF0000A44F00404082774
:105AD000009203E008224FF0000A0092C4F3025241
