:020000040800F2
:1000000008F20020690200081F150008CF10000840
:100010001D150008CB050008F516000800000000BB
:100020000000000000000000000000004916000869
:10003000CD05000800000000211500084B1600083F
:10004000830200088302000883020008830200087C
:10005000830200088302000883020008830200086C
:10006000830200088302000883020008830200085C
:10007000830200088302000883020008830200084C
:10008000830200088302000883020008830200083C
:10009000830200088302000883020008830200082C
:1000A000830200088302000883020008830200081C
:1000B000830200088302000883020008830200080C
:1000C00083020008830200088302000883020008FC
:1000D00083020008830200088302000883020008EC
:1000E00083020008830200088302000883020008DC
:1000F00083020008830200088302000883020008CC
:1001000083020008830200088302000883020008BB
:1001100083020008830200088302000883020008AB
:10012000830200088302000883020008830200089B
:10013000830200088302000883020008830200088B
:10014000830200088302000883020008830200087B
:10015000830200088302000883020008830200086B
:10016000830200088302000883020008830200085B
:1001700083020008830200088302000800000000D8
:10018000830200088302000800F002F800F05CF827
:100190000AA090E8000C82448344AAF10107DA45E2
:1001A00001D100F051F8AFF2090EBAE80F0013F0D8
:1001B000010F18BFFB1A43F001031847B481020076
:1001C000D48102000A444FF0000C10F8013B13F0F8
:1001D000070408BF10F8014B1D1108BF10F8015BA0
:1001E000641E05D010F8016B641E01F8016BF9D193
:1001F00013F0080F1EBF10F8014BAD1C0C1B09D1EA
:100200006D1E58BF01F801CBFAD505E014F8016B5B
:1002100001F8016B6D1EF9D59142D6D370470000ED
:100220000023002400250026103A28BF78C1FBD8FF
:10023000520728BF30C148BF0B6070471FB523F07D
:1002400039FD1FBD10B510BD00F085F91146FFF74F
:10025000F5FF1EF031FE00F0A3F903B4FFF7F2FF43
:1002600003BC00F0ABF9000009488047094800478B
:10027000FEE7FEE7FEE7FEE7FEE7FEE7FEE7FEE756
:10028000FEE7FEE704480549054A064B70470000B3
:10029000E51600088901000808EC002008F200209B
:1002A00008EE002008EE002053EA020C00F06980FE
:1002B0002DE9F04B4FF00006002B1FBFB3FA83F57A
:1002C00003FA05F424FA05F65E4012BF1643B2FAAB
:1002D00082F502FA05F4C5F120051EBF22FA05FCDD
:1002E00044EA0C04203556EA044C4FEA144418BF83
:1002F000641C4FF000084FF00009904271EB030CB2
:1003000039D3002919BFB1FA81F701FA07F6B0FA1B
:1003100080F700FA07F6C7F120071EBF20FA07FC96
:1003200046EA0C062037B6FBF4FCA7EB0507103FA6
:1003300007F01F0BCBF120060CFA0BFB2CFA06F68C
:1003400044BFB3460026202FA4BF5E464FF0000BEB
:100350005BEA060C08BF4FF0010B19EB0B09ABFB76
:10036000027C48EB0608C01B06FB02CC0BFB03CC4F
:1003700071EB0C01C1E70B46024641464846BDE819
:10038000F08B13B54FF000004FF00001AFF3008089
:10039000BDE81C40704740EA0103024630B59B07A8
:1003A00010D14FF0013400E008C208C91D1B9D4365
:1003B00015EAC41FF8D013F0FF0102F8011B0DD09D
:1003C0001B0AF8E711F8013B002B02F8013B05D0AE
:1003D00011F8013B002B02F8013BF3D130BD10B501
:1003E000431C02E010F8011B71B18107FAD14FF0F4
:1003F000013202C88C1A8C4314EAC211F9D0C01A17
:100400000A0603D0C01E10BDC01A10BD0A0401D0D8
:10041000801E10BD0902FCD0401E10BD10B5203A50
:10042000C0F00B80B1E81850203AA0E81850B1E8AD
:100430001850A0E81850BFF4F5AF5FEA027C24BF63
:10044000B1E81850A0E8185044BF18C918C0BDE85A
:1004500010405FEA827C24BF51F8043B40F8043B23
:1004600008BF7047D20728BF31F8023B48BF11F8D8
:10047000012B28BF20F8023B48BF00F8012B704732
:100480004FF0000200B5134694469646203922BF2D
:10049000A0E80C50A0E80C50B1F12001BFF4F7AF78
:1004A000090728BFA0E80C5048BF0CC05DF804EB5A
:1004B000890028BF40F8042B08BF704748BF20F8C8
:1004C000022B11F0804F18BF00F8012B704700007D
:1004D0004FF0013C50F8042B51F8043B9A4221D1D3
:1004E000A2EB0C03934313EACC1317D150F8042B5F
:1004F00051F8043B9A4215D1A2EB0C03934313EA43
:10050000CC130BD150F8042B51F8043B9A4209D17B
:10051000A2EB0C03934313EACC13DBD04FF00000A3
:10052000704700BFD01A01BAB1FA81F101F0180189
:1005300022FA01F0CB40C1F12001DBB2C0B2C01AF7
:100540002CFA01F3D11A914311EAC311E6D1704795
:10055000704770477047754600F02CF8AE460500AE
:100560006946534620F00700854618B020B5FFF7CE
:1005700089FEBDE820404FF000064FF000074FF025
:1005800000084FF0000B21F00701AC46ACE8C009B1
:10059000ACE8C009ACE8C009ACE8C0098D467047BA
:1005A00010B50446AFF300802046BDE81040FFF7C9
:1005B00054BE000000487047A4EB002001491820F9
:1005C000ABBEFEE7260002007047FEE7704772B63A
:1005D000FEE7000070B5044600F00CF90546601C0B
:1005E00002D004480078044400F004F9401BA04203
:1005F000FAD370BD000000202DE9F84FDFF8BCA150
:100600000022012503264FF00F090AF1040BAAF17D
:10061000040E00BF0B6805FA02F42340A34270D118
:100620000F7907F00307012F01D0022F16D1876839
:100630004FEA420806FA08FC27EA0C07D1F80CC07A
:100640000CFA08FC4CEA070CC0F808C04768A7433E
:100650000C79C4F3001494403C4344600C79E443A7
:10066000A4070AD0C4684FEA420C06FA0CF7BC4350
:100670008F6807FA0CF72743C7600C7904F003046E
:10068000022C12D1D40800EB840CDCF82040570770
:10069000FF0E09FA07F824EA0804D1F8108008FAD6
:1006A00007F848EA0408CCF8208004684FEA420CB6
:1006B00006FA0CF7BC430F7907F0030707FA0CF7AB
:1006C000274307604C6814F4403F70D03C4C2768C7
:1006D00047F480472760246822F0030704F480442D
:1006E0000094384C07EB040CDCF8084897074FEAF5
:1006F000177809FA08F7BC43334FB84202D10027F4
:1007000024E054E0314FB84201D101271EE0304FC0
:10071000B84201D1022719E02E4FB84201D1032778
:1007200014E02D4FB84201D104270FE02B4FB842FF
:1007300001D105270AE02A4FB84201D1062705E07A
:10074000284FB84201D1072700E0082707FA08F729
:100750002743CCF80878DAF800405746D1F804C0AF
:100760009C435FEACC2C00D51C433C60DBF8004086
:100770005F46D1F804C09C435FEA8C2C00D51C4333
:100780003C60DEF800407746D1F804C09C435FEA45
:100790008C3C00D51C433C60084F083F3C68D1F8B6
:1007A00004C09C435FEACC3C00D51C433C60521C17
:1007B000102AFFF42FAFBDE8F88F0000083C01407D
:1007C0004438024000300140000002400004024072
:1007D00000080240000C02400010024000140240D9
:1007E00000180240001C02400AB1816170470904F0
:1007F000FBE700000148806870470000000000200F
:10080000024881680278114481607047000000202E
:100810000B4810B5016841F400710160016841F4B2
:1008200080610160016841F480710160032000F083
:1008300061F80F2000F006F800F024F8002010BD49
:10084000003C024070B50D4D04464FF47A71287893
:10085000B1FBF0F00A490968B1FBF0F000F023FCAD
:1008600048B9102C07D200222146501E00F022F871
:1008700000206C6070BD012070BD000000000020F1
:100880000C0000200A4808B5016841F4804101606D
:10089000006800F4804000900548001F016841F0A6
:1008A00080510160006800F08050009008BD000099
:1008B00044380240F0B40E4B1B680C46C3F30223CD
:1008C000C3F10705042D00D90425191D072901D2FC
:1008D000002300E0DB1E012606FA05F1491E214037
:1008E00099409E40761E16403143F0BC00F003BF95
:1008F0000CED00E0064900F0070208684FF6FF0320
:10090000184040EA0220034A104308607047000084
:100910000CED00E00000FA052DE9F0470E46050059
:1009200065D0DFF81481D8F80000F7B200F00700B6
:10093000B04207D288F80070D8F8000000F0070035
:10094000B04254D128683D4C810712D5400703D5E9
:10095000206840F4E05020602878000703D5206824
:1009600040F4604020602068A96820F0F00008434F
:1009700020602878C0072DD03049686808390128E0
:1009800012D0022813D0032811D009688907002942
:100990002DDA216821F0030101432160FFF72AFFCE
:1009A000814641F2883A0EE009688903EFE7096859
:1009B0008901ECE7FFF71EFFA0EB0901514502D9C1
:1009C0000320BDE8F0872068696800F00C00B0EBF8
:1009D000810FEFD1D8F80010404601F00701B14275
:1009E00007D90770006800F00700B04201D001206D
:1009F000E7E72878400705D52068E96820F4E0504B
:100A0000084320602878000706D52068296920F46B
:100A1000604040EAC100206000F018F82168084AF0
:100A2000C1F30311515CC8400649086006480068DC
:100A3000FFF708FF0020C4E7003C024008380240EE
:100A4000BE3C02080C00002004000020154810B530
:100A5000006810F00C02144813D01449042A0FD077
:100A6000082A0ED10F4C241F2268236802F03F028F
:100A70005B0207D52068C0F38810A0FB010106E0E7
:100A8000084610BD2168C1F38811A1FB00010023B5
:100A9000FFF70AFC2168C1F30141491C4900B0FB82
:100AA000F1F010BD083802400024F40040787D01C8
:100AB0002DE9F84F04006ED02078DFF84C93C00782
:100AC000A9F104054AD009F104000168C1F38101CC
:100AD000012908D00068C0F3810002280AD1D9F8A2
:100AE0000000400206D52868800337D560680028DA
:100AF000E1D033E06068B0F5803F10D0B0F5A02FB2
:100B0000286810D020F480302860286820F48020E5
:100B100028606068A8B1FFF76DFE06460DE0286802
:100B200040F48030F4E740F480202860F7E700BF0D
:100B3000FFF760FE801B642873D828688003F7D510
:100B40000CE0FFF757FE064605E000BFFFF752FE38
:100B5000801B6428F0D828688003F7D42078DFF859
:100B6000AC8280074FF0000A3ED5A748001D0168FF
:100B700011F00C0F08D00068C0F3810002280BD1DF
:100B8000D9F80000400207D42868800716D5E0682D
:100B9000012800D112E033E1E068B8B10120C8F8C3
:100BA0000000FFF727FE064605E000BFFFF722FE24
:100BB000801B0228C0D828688007F7D528682169DB
:100BC00020F0F80040EAC10028600DE0C8F800A05D
:100BD000FFF710FE064604E0FFF70CFE801B02281C
:100BE0001FD828688007F7D42078000722D5864FC1
:100BF00087486169703771B101210160FFF7FAFD23
:100C0000064604E0FFF7F6FD801B022809D8386885
:100C10008007F7D50EE0C0F800A0FFF7EBFD064611
:100C200005E082E0FFF7E6FD801B02287DD83868EA
:100C30008007F7D42078400768D5DFF8CCB10027CB
:100C40000BF13C0BDBF80000C0000BD4DBF800100C
:100C500041F08051CBF80010DBF80000012700F0D4
:100C6000805000906B4E3068C00510D4306840F45E
:100C700080703060FFF7BEFD009005E0FFF7BAFD21
:100C80000099401A022850D83068C005F6D55E4E4B
:100C9000A0686C3601280FD00528306810D020F0ED
:100CA00001003060306820F004003060A068B8B106
:100CB000FFF7A0FD00900FE0306840F00100F4E77E
:100CC00040F004003060F7E7FFF794FD0099411A07
:100CD00041F28830814266D830688007F4D50EE052
:100CE000FFF788FD009007E0FFF784FD0099411AA7
:100CF00041F28830814256D830688007F4D42FB151
:100D0000DBF8001021F08051CBF80010A069C8B3C7
:100D10003D49091D0968C1F3810102294AD0022811
:100D2000504607D0C8F8600000E03CE0FFF762FDE5
:100D300004463BE04746C8F86000FFF75BFD064607
:100D400005E000BFFFF756FD801B02282BD828685E
:100D50008001F7D4D4E907010843A16A2E4A490863
:100D600002EB0141626A41EA8211084394F82C10B7
:100D700040EA0161C9F8001001203866FFF73AFD2A
:100D8000044606E03EE000BFFFF734FD001B0228EA
:100D900009D828688001F7D534E000BFFFF72AFDA5
:100DA000001B022802D90320BDE8F88F28688001C3
:100DB000F4D427E00128F7D0D9F80000E26900F464
:100DC000800191421CD1226A00F03F01914217D16B
:100DD00047F6C071626A0140B1EB821F10D1A26A6E
:100DE0004FF0FF3300F4403103EB5202B1EB024FFE
:100DF00006D194F82C1000F07060B0EB016F01D0B8
:100E00000120D1E70020CFE704380240000047422C
:100E1000800E4742007000400000FFFF70B50400E4
:100E200009D0606A002540B125616561A56294F82A
:100E3000510040B10CE0012070BD6068B0F5827FC8
:100E4000F4D0E561F2E784F85050204600F044F811
:100E5000022084F851002068016821F040010160FF
:100E6000A088218900F4827001F404410843A1891B
:100E700001F400610843217C01F002010843217D57
:100E800001F001010843218B01F400710843217F27
:100E900001F03801084394F8201001F08001084364
:100EA000218D01F40051084321680860A0690421E4
:100EB00001EA104094F8241001F010010843216861
:100EC00048602068C16921F40061C1616565012045
:100ED00084F85100002070BD10B586B0044614217E
:100EE0006846FFF7CDFA13492068884220D112489E
:100EF0000021026842F480520260006800F48050D1
:100F000005900D481438026842F001020260006842
:100F100000F001000590E02000900220CDE90101E1
:100F2000032003900520049069460448FFF764FB02
:100F300006B010BD003001404438024000000240BD
:100F40002DE9F84F984616468A460446FFF752FCAC
:100F5000814694F8510001281ED1BAF1000F73D0D8
:100F6000002E71D094F85000012815D0012784F884
:100F70005070032084F8510000256565C4F830A046
:100F8000A686E686A563A587E58765642564A068CF
:100F9000B0F5004F03D00CE00220BDE8F88F2068C8
:100FA000016821F0400101602068016841F480413E
:100FB000016020680168490603D4016841F04001DE
:100FC0000160E068B0F5006F606803D048B3012E9F
:100FD00027D047E008B1012E1FD1206B216800887F
:100FE000C86006E020688168890709D5216B0988F7
:100FF000C160206B801C2063E08E401EE0860CE008
:10100000FFF7F8FBA0EB0901414503D3B8F1FF3F1F
:1010100003D035E0B8F1000F32D0E08E0028E1D1E6
:1010200023E0206B21680078087306E0206881685F
:1010300089070AD5216B09780173206B401C206356
:10104000E08E401EE0860DE02BE0FFF7D3FBA0EB27
:101050000901414503D3B8F1FF3F03D010E0B8F1D7
:10106000000F0DD0E08E0028E0D14A4641462046D0
:1010700000F058FA08B120206065A06830B109E09E
:1010800084F8517084F85050032086E72068C168C6
:101090008068009084F8517004F8505F6068002800
:1010A000F3D0012079E710B5401EB0F1807F01D365
:1010B000012010BD4FF0E02460610F21601700F0A7
:1010C0001AFB0020A06107202061002010BDFEE770
:1010D00010B5144601231A4600F07CF9200A00F0EE
:1010E00059F9E0B2BDE8104000F054B910B500F075
:1010F00019F96420FFF76EFACF2000F02BF90020D9
:1011000000F048F9D92000F045F9302000F042F90C
:10111000ED2000F01FF9642000F03CF9032000F0FE
:1011200039F9122000F036F9812000F033F9E82077
:1011300000F010F9852000F02DF9102000F02AF9B8
:101140007A2000F027F9CB2000F004F9392000F0D4
:1011500021F92C2000F01EF9002000F01BF93420AA
:1011600000F018F9022000F015F9F72000F0F2F86D
:10117000202000F00FF9EA2000F0ECF8002000F049
:1011800009F9002000F006F9C02000F0E3F81B2068
:1011900000F000F9C12000F0DDF8122000F0FAF8AC
:1011A000C52000F0D7F8082000F0F4F8262000F061
:1011B000F1F8C72000F0CEF8B72000F0EBF83620A9
:1011C00000F0C8F8082000F0E5F83A2000F0C2F876
:1011D000552000F0DFF8B12000F0BCF8002000F04E
:1011E000D9F81A2000F0D6F8B62000F0B3F80A209B
:1011F00000F0D0F8A22000F0CDF8F22000F0AAF81C
:10120000002000F0C7F8262000F0A4F8012000F02C
:10121000C1F8E02000F09EF80F2000F0BBF81D2080
:1012200000F0B8F81A2000F0B5F80A2000F0B2F883
:101230000D2000F0AFF8072000F0ACF8492000F0D6
:10124000A9F8662000F0A6F83B2000F0A3F80720DC
:1012500000F0A0F8112000F09DF8012000F09AF8AD
:10126000092000F097F8052000F094F8042000F021
:1012700091F8E12000F06EF8002000F08BF81820C3
:1012800000F088F81D2000F085F8022000F082F8B8
:101290000F2000F07FF8042000F07CF8362000F0EA
:1012A00079F8132000F076F84C2000F073F807204E
:1012B00000F070F8132000F06DF80F2000F06AF8CD
:1012C0002E2000F067F82F2000F064F8052000F0D1
:1012D00061F82B2000F03EF8002000F05BF80020C1
:1012E00000F058F8012000F055F83F2000F052F8C7
:1012F0002A2000F02FF8002000F04CF8002000F029
:1013000049F8002000F046F8EF2000F043F81120E3
:1013100000F020F87820FFF75DF9BDE810402920A3
:1013200000F018B870B50A4D4FF4805400222146E1
:101330002846FFF759FA3220FFF74CF901222146DF
:101340002846FFF751FABDE870403220FFF742B956
:101350000004024031B50D4C00224FF4804120467C
:10136000FFF742FA4FF40045002229462046FFF7D6
:101370003BFA4FF0FF33012269460548FFF7E0FDD5
:10138000012229462046FFF72FFA38BD000402400B
:101390001802002031B50D4C012291032046FFF7C1
:1013A00023FA4FF40045002229462046FFF71CFA95
:1013B0004FF0FF33012269460548FFF7C1FD0122C6
:1013C00029462046FFF710FA38BD0000000402400D
:1013D000180200202DE9F04105461044401E87B256
:1013E000C818401E86B20C462A20FFF7B3FF280A11
:1013F000FFF7D0FFE8B2FFF7CDFF380AFFF7CAFFCB
:10140000F8B2FFF7C7FF2B20FFF7A4FF200AFFF772
:10141000C1FFE0B2FFF7BEFF300AFFF7BBFFF0B23B
:10142000FFF7B8FFBDE8F0412C20FFF793BF0000A5
:101430002DE9F04186B014216846FFF721F82248D3
:101440000025016841F004010160016801F0040118
:101450000591016841F080010160016801F080019F
:101460000591016841F001010160016801F001018D
:101470000591016841F0020101600068134F00F01E
:101480000200059001221C213846FFF7ADF9DFF874
:1014900040804FF47046012231464046FFF7A4F9E0
:1014A0001C2001248DE83100694638460395FFF77A
:1014B000A3F8CDE900640294694640460394FFF71F
:1014C0009BF806B0BDE8F0813038024000000240D1
:1014D00000040240104810B50E4901604FF48271BB
:1014E000416000218160C1604FF400720161C0E978
:1014F00005120822C0E90721416281620A21C16206
:10150000FFF78CFC002803D0BDE81040FFF75FB860
:1015100010BD00000030014018020020FEE7FEE789
:1015200070470000F8B515460E460B46009204467B
:101530000122022100F02CF8A0B9134813490068D9
:10154000B0FBF1F04FF47A71484300906068B0F559
:10155000827F0DD13346002280212046009500F085
:1015600017F870B1606D40F0200060650320F8BD91
:10157000009830B1401E009020688068C04300068B
:10158000F6D50020F8BD00000C00002000366E01EA
:101590002DE9F8431E46914688460446089DFFF70C
:1015A00029F9401B351AFFF725F907462548006839
:1015B000C0F3CB30684338E0701C37D0FFF71AF91E
:1015C000C01BA84203D215B1009860B32CE020687C
:1015D000416821F0E00141606068B0F5827F0BD185
:1015E000A068B0F5004F02D0B0F5806F04D120683C
:1015F000016821F040010160A06AB0F5005F09D1E7
:101600002068016821F4005101602068016841F4FC
:1016100000510160012084F85100002084F850003E
:101620000320BDE8F8830025401E009020688168F3
:1016300038EA010004D000214945BDD10020F0E77F
:101640000121F9E70C0000207047FFF7D9B800002E
:1016500030B593B030216846FEF712FF14210CA874
:10166000FEF70EFF1D480025016841F08051016022
:10167000006800F0805011901948016841F48041E1
:1016800001600068022400F4804011900120039062
:1016900010200490009406940820CDE90750A8205B
:1016A000CDE9090404200B906846FFF701FA08B160
:1016B00072B6FEE70CA90F2081E831004FF4A0506C
:1016C0000F904FF48050109005210CA8FFF724F9DB
:1016D000002801D072B6FEE713B030BD403802409A
:1016E000007000400248016841F4700101607047D9
:1016F00088ED00E0FEE70907090E002804DB00F191
:10170000E02080F80014704700F00F0000F1E020A6
:1017100080F8141D704770B5044600256FF02F0641
:1017200008E02068411C2160007805EB850106EB8C
:10173000410145182068007800F004F80028F0D135
:10174000284670BD3038092801D801207047002094
:101750007047000010B54421074800F09DFC0022AE
:101760001E2106481CF006FF054CA06001F064FD38
:101770000020207010BD0000EC030020ED320008B6
:101780007C0100202DE9F0470E46814617461146A0
:10179000304600F01CF94FF0FF3A00287DD00022BF
:1017A0003946304600F0BFF800284FF0000075D1F0
:1017B000B6F90480B6F900305246A8EB0301491C83
:1017C0000AFA81F10FFA81FAB6F906C0B6F90210E9
:1017D000ACEB010C0CF1010C02FA8CF2B7F802C070
:1017E00012B2ACEB010C0FFA8CFCBCF1000F0EDD59
:1017F00063F30F0468F30F0501EB0C0061F31F4462
:1018000060F31F45C9F800400120C9F80450B7F93A
:1018100006107388CB1AD21A12B2002A13DDB6F959
:10182000063099420FDA338863F30F04B38861F30B
:101830001F4463F30F05114461F31F4509EBC00119
:10184000401C0C604D60B7F90220B6F902108A42C4
:1018500000DD1146B7F90630B6F90620934200DAEA
:101860001A463B88B6F900C0521AA3EB0C031BB210
:1018700012B2002B10DD002A0EDD634463F30F0566
:101880008B1863F31F456CF30F0409EBC00361F37E
:101890001F441C605D60401C01E01AE017E0B7F9CE
:1018A000043036889F1BAAEB070636B2002E0EDDE9
:1018B00063F30F0461F31F44334463F30F051144D2
:1018C00061F31F4509EBC001401C0C604D60BDE891
:1018D000F0875046FBE770B5B1F90030B2F900402F
:1018E000A34200DC23460380B1F90250B2F9024062
:1018F000A54200DD2C464480B1F90460B2F90450E1
:10190000AE4200DA35468580B1F90610B2F90620FC
:10191000914200DB1146C1800120AB4201DC8C42C8
:1019200000DD002070BDF8B50D460446B0F900009A
:10193000B1F900101646884247DBB4F90210B5F938
:101940000220914241DBB4F90410B5F90420914220
:101950003BDCB4F90610B5F90620914235DC96B3AC
:10196000ADF800006088ADF80200324669462846AE
:1019700000F099F8002827D0A088ADF80000608812
:10198000ADF8020032466946284600F08CF800287F
:101990001AD02088ADF80000E088ADF80200324689
:1019A0006946284600F07FF800280DD0A088ADF8E1
:1019B0000000E088ADF8020032466946284600F093
:1019C00072F8002800D00120F8BD0020F8BDB0F961
:1019D0000020B1F904309A4213DCB0F90420B1F9C7
:1019E00000309A420DDBB0F90220B1F906309A427C
:1019F00007DCB0F90600B1F90210884201DB0120D2
:101A0000704700207047F8B50D460446B0F9040051
:101A1000B1F900101646884243DBB4F90600B5F967
:101A2000021088423DDBB4F90000B5F90410884289
:101A300037DCB4F90210B5F90620914231DC76B3F7
:101A4000ADF800006088ADF80200324669462846CD
:101A500000F029F818BBA088ADF800006088ADF848
:101A6000020032466946284600F01DF8B8B92088C1
:101A7000ADF80000E088ADF802003246694628461D
:101A800000F011F858B9A088ADF80000E088ADF872
:101A9000020032466946284600F005F808B10020E9
:101AA000F8BD0120F8BD2DE9FC4114460E46B1F900
:101AB0000020B0F9001005468A423ADBB5F904006F
:101AC000824236DCB6F90270B5F90220974230DB6B
:101AD000B5F906309F422CDC002C75DD401A9A1AAD
:101AE000401C521C00B212B200EBD07002EBD2725A
:101AF00040105210904200DB1046844200DD044644
:101B0000ADF80010288800222044ADF80400688851
:101B1000ADF80200688831462044ADF806006846FA
:101B2000FFF7C1FF40B1BDF804002044ADF8040048
:101B30003FE00020BDE8FC81E8880022001BADF8F2
:101B40000200E888ADF8060031466846FFF7ABFFB3
:101B500028B1BDF804002044ADF8040011E0A888C5
:101B60000022001BADF80000A888ADF80400314643
:101B70006846FFF798FF50B1BDF80000001BADF8B4
:101B80000000BDF80200001BADF8020016E06888F6
:101B9000ADF80200688800222044ADF80600314606
:101BA0006846FFF780FF70B1BDF80000001BADF87C
:101BB0000000BDF806002044ADF806003146684636
:101BC0001AF0B8F9B6E7FFE70120B3E710B5B1F9AD
:101BD0000040B2F900309C4200DA23460380B1F99C
:101BE0000240B2F902309C4200DA23464380B1F948
:101BF0000440B2F904309C4200DD23468380B1F9F1
:101C00000610B2F90620914200DC1146C18010BDD9
:101C1000F8B507461CF054FC0025374C06460095E5
:101C200037B1F868606038461CF072FD606802E009
:101C30000FF034FC606000691AF078F86068406961
:101C400008B11AF073F86068C0691AF06FF860683C
:101C5000006A1AF06BF86068016991B11AF000FA35
:101C60001EF084FC1EF0AAF96068B0F85011D9B3D8
:101C70000068017CC9071DD0C0684068D0B100274A
:101C800013E0A0F85051F8BDC11991F8301151B9C5
:101C900000F5AC7000F057FA616801EBC7010A6B00
:101CA0000260496B41607F1CBFB26068B0F85011A0
:101CB000B942E9D860684FF48071303015F044FDC6
:101CC0006068202100F5987015F03EFD6068A0F86E
:101CD000505130461CF0EEFB009060680068436A8B
:101CE00013B122680099984715F0ACFB00F032F868
:101CF000BDE8F84000F002B83C00002070B50A4D85
:101D0000002400BFC4EBC40655F8260008B115F046
:101D10000DFC05EB86001C2115F016FD641CE4B2D9
:101D2000042CEFD370BD0000C804002008494968A6
:101D30000AE04A68824202D00A68824203D10A7EDF
:101D400042F001020A7649690029F2D17047000089
:101D500010000020704700000421014800F09CB9E9
:101D6000E00300202021014800F096B9F80300208C
:101D70002DE9FF410446DDE90A671D004FF0000030
:101D800002D1B6F5807F2BD0039001900290ADF880
:101D90000C100090ADF80410ADF80A20ADF80E203C
:101DA0003B463246294668461AF024F83B463246FE
:101DB000294601A81AF01EF83B463246294602A8D9
:101DC0001AF018F83B463246294603A81AF012F8D2
:101DD000BDF90000BDF90430984209DA054608E073
:101DE0002080491E6080A180521EE280BDE8FF81F4
:101DF0001D46BDF90820BDF90C108A4201DA1646CD
:101E000000E00E46B54203DA984206DB184604E0CD
:101E10008A4201DA104600E00846801E2080BDF9A3
:101E20000030BDF90420934201DD1D4600E0154657
:101E3000BDF90800BDF90C10884201DD064600E03E
:101E40000E46B54205DD934201DD194604E0114618
:101E500002E0884200DD0146891CA180BDF9023004
:101E6000BDF90620934201DA1D4600E01546BDF992
:101E70000A00BDF90E10884201DA064600E00E465F
:101E8000B54205DA934201DA194604E0114602E050
:101E9000884200DA0146891E6180BDF90230BDF931
:101EA0000620934201DD1D4600E01546BDF90A00FB
:101EB000BDF90E10884201DD064600E00E46B5422F
:101EC00005DD934201DD194604E0114602E0884237
:101ED00000DD0146891CE18088E700002DE9F04122
:101EE00015460E460746114C1CF0EAFA80462B4672
:101EF00032463946204613F05FFC20B10020A06234
:101F0000E06950B110E02C21204615F01DFC4FF087
:101F10000040A0620020BDE8F08140461CF0CAFAF3
:101F2000E06108B90120E0612046F4E71C040020CC
:101F300010B51421074800F0AFF813F003FC40B1CE
:101F40000549016005494160054981600549C16055
:101F500010BDFEE704040020195101089554010842
:101F600065560108E55001087FB50E46040003D10F
:101F70000FF094FA04002CD00FF004FB002828D0B6
:101F800094F82800400724D4002506B3ADF800508B
:101F9000ADF8025020460FF099FA401EADF804004B
:101FA00020460FF0D9FA401EADF806006A463146C9
:101FB00002A8FFF790FC00280BD02068017C89075D
:101FC00008D5DDE90001C4E90C01012029E0A4F8ED
:101FD00050517FBD82690AB102A9904700260AE0EC
:101FE00004EBC601002202A83031FFF79CFC002858
:101FF000EFD1761CB6B2B4F85001B042F0D880B23E
:10200000202804D204EBC00002A9303004E0A4F878
:10201000505104F1300069460CF0DDFFB4F8500176
:10202000401CA4F8500160680028D2D01CF07CFB52
:102030007FBD70B5054600F012F804460CE021465D
:10204000284600F01EF806462146284600F0A2F871
:10205000204615F06BFA3446002CF0D170BD0028F4
:1020600000D04068704700B503460022FFF7F7FF35
:1020700003E01846521C00F004F80100F9D11046A4
:1020800000BD0068091D40587047006840587047FF
:10209000002800D08068704700224260C91C21F0EF
:1020A000030182600160704770B504460068083023
:1020B00015F0B0F9050013D00146002220461DF0AE
:1020C00081FB2946204662681DF076FB616819B1E4
:1020D0002A4620461DF076FB6560A06800B9A56021
:1020E000284670BD2DE9F0410C4606000AD04CB1DF
:1020F000FFF7B5FFA04208D13046FFF7D5FF051E18
:1021000001D01EE00020BDE8F0813068083015F0F5
:1021100081F9051EF7D030682A46075930463946FE
:102120001DF04AFB3A46294630461DF04BFB2A4635
:10213000214630461DF046FB2246294630461DF01A
:102140003BFB2846DFE770B504460068083015F011
:1021500061F9050013D00146002220461DF02CFB3A
:1021600029462046A2681DF02DFBA16819B12A4618
:1021700020461DF021FBA560606800B96560284617
:1021800070BD28B1416809B9806808B10020704766
:102190000120704770B504000DD0FFF760FF0022EA
:1021A0008842204608D1FFF76CFF6060011E01D015
:1021B00000221EE0A26070BDFFF76AFF884220681F
:1021C00008440AD10168A16029B12046BDE87040E9
:1021D00000221DF0F1BA626070BD05682046FFF76D
:1021E00050FF06460246294620461DF0E5FA2A46DB
:1021F00031462046BDE870401DF0E4BA10B50446F3
:10220000006882680AB1214690472068006800286B
:1022100001D02060F5E710BD8068002801D0B0F93A
:10222000160070478068002801D0807E80097047C2
:1022300070B5164605460C4651EA06001AD02846E7
:1022400015F0E8FFA86801233246018A2144018283
:10225000A868418A314441822146284618F060FB33
:1022600000220B21284612F0FBF9012803D1284651
:1022700018F0AFFA012070BD77B581B00E460500A9
:1022800017D0622217F0D6FD040012D0206880B16A
:1022900028463146632217F0CDFD10F0FF0208D02A
:1022A00023682046039998470090BDF80000ADF8D8
:1022B0000C00039804B070BD2DE9F047074692B0BA
:1022C000408C1A9E40F00800788490463A849946E3
:1022D0008A463289384617F0ADFD0546A7F82090AA
:1022E00032895146384617F0A5FD0446788CA54240
:1022F00020F00800788403D12904B1EB044F68D0A2
:10230000A7F8208032895146384617F093FD0546DC
:102310008046A7F82090514638460AF0EDFF3189F3
:1023200000682A461BF018F830890B2823D147F69D
:10233000FF794D4501D04C451DD1384617F041FF7E
:1023400000EBD0704510384616F019FE00EBD07047
:102350004010C84506D1691C431C994200DA00E0D0
:10236000194688464C4506D1691C421C914201DA47
:102370006C1C00E014461948FFF796FE05002BD0B0
:102380002F60C5E903843089A8806846C5F808A095
:102390000CF094F81248FF21CDE90050114802904A
:1023A0001148039000200890CDE9090130880B9076
:1023B00070889DF8421040420C90F0680790002011
:1023C00060F300018DF842103069069068460CF009
:1023D000E9F812B0BDE8F087FEE700001004002025
:1023E000F1340208DD3602083936020814210148AA
:1023F000FFF752BE100400202DE9F84F002590464B
:10240000894606462C460427E5E000BFF16807EB45
:10241000C400085882017AD480B230EA090211D08F
:102420005FF0000230EA08000ED0002082426ED039
:1024300051F834A06A46102150461AF0EFFC0028EB
:1024400071D103E00122EDE70120EFE76A46112197
:1024500050461AF0E3FC002865D16A461221504626
:102460001AF0DCFC00285ED16A46132150461AF0AF
:10247000D5FC002857D16A46152150461AF0CEFCEB
:10248000002850D16A46142150461AF0C7FCE8BB18
:102490006A460A2150461AF0C1FCB8BB6A466B2155
:1024A00050461AF0BBFC88BB6A466C2150461AF0B5
:1024B000B5FC58BB6A46012150461AF0AFFC28BB58
:1024C0006A46042150461AF0A9FCF8B96A4602216E
:1024D00050461AF0A3FCC8B96A46032150461AF0C8
:1024E0009DFC98B96A46052150461AF097FC68B9D8
:1024F0006A46062150461AF091FC38B96A463221E4
:1025000050461AF08BFC08B96A4601E00BE061E026
:102510006E2150461AF082FC28B96A466D21504659
:102520001AF07CFC10B10320BDE8F88F6A466921DF
:1025300050461AF073FCE8BB6A466A2150461AF00E
:102540006DFCB8BB6A466E2150461AF067FC88BB2A
:102550006A466D2150461AF061FC58BB6A46372125
:1025600050461AF05BFC28BB6A46382150461AF0E8
:1025700055FCF8B96A46352150461AF04FFCC8B9E7
:102580006A46402150461AF049FC98B96A464521EE
:1025900050461AF043FC68B96A46412150461AF089
:1025A0003DFC38B96A46422150461AF037FC08B95A
:1025B0006A4600E00AE0432150461AF02FFC28B991
:1025C0006A46492150461AF029FC08B1022501E06B
:1025D00005B90125641C708CC0F30510A0423FF6BC
:1025E00015AF2846A0E7000001484068704700008A
:1025F0003C0000207047C0F30410072800D90720D2
:1026000070470000A0F57F41FF3905D0002804D0B5
:10261000712803D208490AE01F2070470749713822
:1026200080B2096829B1064A5268904201D2085C1A
:1026300070470020704700006C7C0208A801002051
:10264000BC01002010B518210348FFF725FD034900
:102650000120087010BD0000BC030020C401002050
:102660002DE9F04190460C46050015D0FDF7B7FE68
:102670000A4F06462146BA68284690470446BA687B
:102680002819414690470146701A03E06218AA5C77
:102690002A55641CA042F9D2BDE8F081D80100207F
:1026A0002DE9F041094D90460E466A681C460746E2
:1026B00019469047306020B120686A68384400218C
:1026C0009047C8F80000BDE8F0810000D801002064
:1026D0002DE9F04F87B08A46DDE910581F46934632
:1026E0000446002105B129805CB12078002809D07A
:1026F000BAF1000F05D0002618F0060F15D0002003
:1027000004E0002007B0BDE8F08F401C215C0A29DE
:1027100004D00D2902D00029F7D100E0401C002D83
:10272000F0D04FF0FF312980ECE75FEA887001D5E7
:1027300041F6FF77894608468DF81410049127E08A
:102740000498CDF8189068B34FF0000C05AA06ABBA
:10275000CDF80CC0CDF80080CDE9013220443B46D5
:102760005A4651461CF022F906997A1A314417B29A
:102770000EB288B104990144049120780A280BD044
:102780000D2809D0605C0A280FD00D280DD008460E
:10279000205C08B1002FD3DC049848B105B12E802D
:1027A0000498AFE74FF0010CD0E7481C0490F3E722
:1027B000064A04A9204652689047002DF0D00146F1
:1027C0000022504612F060F806B2E8E7D801002077
:1027D0002DE9F0411746884606001ED0002F1CD078
:1027E000FDF7FDFD04463846FDF7F9FD050014D060
:1027F0000B4A2C444146926830469047411903E009
:10280000621BB25C3255641EA142F9D930442A469B
:102810003946BDE8F04114F059BFBDE8F081000031
:10282000D801002000230278232902D0012A0DD0EC
:102830000FE02AB10021012A04D0022A04D008E0C6
:10284000012101E0017004E0017001E0202902D0C3
:102850000123184670470221F6E72DE9F0410E46A4
:10286000804602460021334608461CF0DDFA044645
:102870000027401C14F0CEFD050008D02F5533462C
:102880004246611C1CF0D0FA2846BDE8F081FEE704
:102890002DE9F0471E4614460D468246DDF820908D
:1028A00015E000BF4FEA540808FB0657394650466A
:1028B0004A469047002808DD44F30000C0EB54046A
:1028C00007EB0605A4F1010401E005DA4446002CFB
:1028D000E8D12046BDE8F0873846FBE72DE9FC5FEC
:1028E0009B460CAB8A468146DDE9116093E81210E5
:1028F000DDE90F575FEA80784FF030031AD45EB1FC
:102900005FEAC07808D000F00C0858EA0C0803D041
:10291000761E01E00B55641CBC4204D2202CF9D376
:1029200001E00B55641C5FEAC07803D0B44201D2C9
:10293000202CF6D35FEAC06825D55FEA40580AD458
:102940004CB1BC4201D0B44205D1641E03D0102D5D
:1029500003D1641E04E0102D02D0022D0AD00EE037
:10296000850603D4202C1ED2782506E0202C1AD20E
:10297000582502E0202C16D262250D55641C202C0F
:1029800011D20B55641C202C0DD2BCF1000F01D0CC
:102990002D2306E0430701D52B2302E0030702D5D0
:1029A00020230B55641CCDE900BAC8461546814664
:1029B0008B46AA46800714D1274607E02A46DDE960
:1029C00000316D1C2020C446E0477F1CB742F5D380
:1029D00007E02A466D1C641EDDE900311BF8040087
:1029E000C047002CF5D15FEA897006D409E02A4679
:1029F000DDE900316D1C2020C047A5EB0A00B04284
:102A0000F5D32846BDE8FC9F2DE9F04F8FB09946DD
:102A10008B46DDE91818DDE91C63DDE91A479246AB
:102A20008646002209B923F01003580507AD00D5EA
:102A3000C9B1B1FBF4F004FB1010C0B20A2801D2F6
:102A4000303009E05FEA836C02D54FF0410C01E0C1
:102A50004FF0610C60440A38B1FBF4F1A854521CE9
:102A600009B1202AE5D3CDF80880CDE90563CDE989
:102A70000052CDE903474B46524659467046FFF790
:102A80002DFF0FB0BDE8F08F2DE9FF4F8FB01CACCC
:102A9000DDE9239594E8030820AC94E8C004002401
:102AA00050EA010201D125F010056A050DF11C085C
:102AB00002D550EA010217D032463B46FDF7F4FB3F
:102AC000D2B20A2A01D2303206E0AB0601D5412348
:102AD00000E061231A440A3A08F80420641C50EA12
:102AE000010201D0202CE7D3CDE90084CDF808B055
:102AF000CDE90595CDE9036A0FAF97E80F00FFF721
:102B0000EDFE13B0BDE8F08F9A4200D288547047B2
:102B1000704700002DE9FF4F89B005460A98002450
:102B20009246002800D1FE4D8FE1252804D0224690
:102B3000641C53460A990BE2491C4FF000080846F2
:102B40000C9101782B2919D004DC202919D02329D4
:102B500004D119E02D290ED0302909D00026C8B2A1
:102B6000FEF7F0FDB0B10CA8FEF7D5FD06461FE05C
:102B700048F001010AE048F0020107E048F00401D2
:102B800004E048F0080101E048F01001401C8846CC
:102B90000C90D6E70C9908782A2809D1169840C8D5
:102BA0001690002E02DA48F002087642491C0C9179
:102BB0000C984FF0000B01782E2919D1401C0C9075
:102BC00048F480680078FEF7BDFD20B10CA8FEF740
:102BD000A2FD83460CE00C9A10782A2808D116989A
:102BE00002C81690002900DC0021521C8B460C9272
:102BF0000C9801786C290AD004DC68290FD06A2966
:102C000019D128E0742929D07A2914D126E0401C52
:102C10000C90017848F480786C291CD00BE0401CA3
:102C20000C90017848F08008682904D148F04001F0
:102C3000401C88460C9002460078692822D015DC9A
:102C400062281FD00DDC252871D050281AD05828B2
:102C50007FF46DAF16E048F40071E9E748F4807145
:102C6000E6E7632878D06428F2D10BE0732874D0AB
:102C700004DC6F2806D07028EAD103E0752801D063
:102C80007828E5D178280DD058280BD070280BD0A3
:102C9000502809D06F2816D0622816D00A2128F0B3
:102CA000100016E0102107E05078102148F48878D1
:102CB000562804D1521C0C921078582807D010784E
:102CC000502804D006E0082109E0022107E048F07E
:102CD000200080461078692803D0642801D028F0AD
:102CE0000C085FEA485001D528F0010810786928DF
:102CF0001ED064281CD0562864D05FEA885072D554
:102D0000169804ABC01D002283E806080292CDE9A4
:102D1000076820F007005346F0E80212CDE90012E0
:102D20001690224628460A99FFF7AEFE89E00AE18E
:102D30005FEA885024D5169804AFC01D20F0070321
:102D4000F3E802021693002387E80A08CDE9076832
:102D5000002A03DA012102E080E0A6E0002100233E
:102D6000029119461B1A914101DA114603E0002134
:102D7000404261EB020153462246CDE90001D1E712
:102D80005FEAC85004D5169804C80FE0524215E017
:102D90005FEA486003D5169810F8042B06E05FEA56
:102DA0000860F0D5169830F8042B12B21690CDE9D1
:102DB000021BCDE90468D00F002AE7DDCDE9002031
:102DC00053461EE01698AAEB040202C81690486803
:102DD000006800900A980B6801192846FFF79AFED0
:102DE00004442FE0FFE75FEAC8500CD5CDE9021B91
:102DF000CDE9046816980021534604C8CDE90021A6
:102E00001690224619E05FEA486003D5169810F83C
:102E1000042B08E05FEA0860169803D530F8042B0D
:102E200092B200E004C816900020CDE90020CDE960
:102E3000021BCDE904685346224628460A99FFF74B
:102E4000E3FD04460C98401C0C900C99087800286F
:102E50007FF46BAE54457DD222467DE001275FEAC8
:102E6000887006D509E02246641C534620200A9942
:102E7000A84738467F1CB042F5D316992246641CF9
:102E800011F8040B169153460A99A8475FEA887017
:102E900006D4D7E72246641C534620200A99A84747
:102EA00038467F1CB042F5D3CCE7169850F8049B07
:102EB00016904B46BBF1000001D0014601E04FF0F7
:102EC000FF31484600E0401C02780AB1491EFAD2A0
:102ED000C71A5FEA485003D558465F4500D30746F6
:102EE0005FEA887006D512E02246641C5346202013
:102EF0000A99A84738467F1CB042F5D307E000BFC7
:102F0000224609F10109641C53460A99A84799F819
:102F1000000040B15FEA4851F2D5BBF1010B01E07E
:102F2000112B0008ECD25FEA887006D48AE72246AB
:102F3000641C534620200A99A84738467F1CB0429B
:102F4000F5D37FE706E02246641C534625200A9904
:102F5000A84777E7AAF10102534600200A99A8473B
:102F60000DB02046BDE8F08F10B502004FF0000014
:102F70000CD04B1E194200D0FEE70A44521E9A4361
:102F8000B2F5803F02D20C2A01D9104610BD0C20A8
:102F900010BD08444A1E401E9043114200D0FEE777
:102FA000704700002DE9F0410F460121002504463D
:102FB00041862E460BE01B49FDF78AFA10B16D1CC5
:102FC000ADB202E0608E401C6086761CB6B257F847
:102FD000260010B101780029EDD1208EA8421ED024
:102FE000A06A002610B114F0A1FAA662E06A10B13E
:102FF00014F09CFAE662E80014F00CFAA06238B112
:10300000680014F007FAE06218B1A16A11B102E099
:10301000FEE7FEE70025690014F096FB2586BDE873
:10302000F0810000D8F900082DE9F84F8146407A78
:103030000F4600F00700022819D01046804697423C
:1030400000DD3A46164603202A4C2B4A00EB460088
:1030500020F00305A06811681035411A636805EB7C
:10306000010C9C4505D2416821F0004124E008464E
:10307000E4E79D4219D892464FF0FF3B481961683A
:10308000884210D9002269461C48CDF800B00AF0E9
:1030900075FE002269461A480AF070FEA168DAF847
:1030A0000000091AEAE7A068DDE7284614F0B2F943
:1030B000C0B1416841F0004188EA6702416089EA95
:1030C00002010160416801F04041491C31F080413A
:1030D00041608681A0F80E8005D500F11001816065
:1030E000BDE8F88FFEE7A16801F110022944826073
:1030F000A160F5E744000020A40100204DBF0008B6
:10310000DDDD000870B586B000224A4C8DF808203D
:103110008DF80C208DF81020E2888A4201D0FF2221
:10312000A270E18090F83C20142302F003024FF4D7
:10313000B475012A24D0022A5ED0A578AA4211D003
:1031400010F8265F05EB051505EB4505B5FBF3F516
:103150002570407800EB001000EB4000B0FBF3F06E
:103160006070A27004AA03A8CDE9000201EB41003F
:103170004FF6FF7101EA400002AB627821781BE054
:10318000A678B24210D0868C06EB46067602B6FBD5
:10319000F5F5A58090F8270000EB001000EB40004B
:1031A000B0FBF3F06070A27004AA03A8CDE900029E
:1031B000C9B202AB62783AE008F0DBFB9DF8101070
:1031C0009DF80C00CB08BDF800109DF8082063F3B3
:1031D0000401ADF800108108BDF8000061F34A1049
:1031E000D10880B261F3CF20ADF8000080B200902A
:1031F000BDF8000006B070BDA678B24210D0868C33
:1032000006EB46067602B6FBF5F5A58090F826009B
:1032100000EB001000EB4000B0FBF3F02070A27058
:1032200004AA03A8CDE90002CAB2217802ABA088A3
:10323000C2E70000F000002010B5084C012020700B
:103240000748FEF70CFF0028A06803D0BDE8104037
:103250001BF06ABABDE810401BF05ABA7C0100208E
:10326000EC03002010B5044690F84200A16B8207E1
:1032700009D4B4F840204AB1A2F57F43FF3B1BD0EC
:10328000521EA4F84020B4F84020AAB909B1820720
:1032900012D521461448FEF77DFFFFF7CDFFE16808
:1032A00009B120468847216909B120468847204650
:1032B000BDE8104014F03AB9E26B52422263002993
:1032C00011D0820702D4626B524222634210521C18
:1032D00062F3410084F84200A26A206A2262A0627E
:1032E000E06AE162A06310BDEC03002070B5304DD0
:1032F00068681BF0DFF80646687880F001006870A7
:1033000047E00020287094F842006978C0F38002FA
:103310008A4242D061F3820084F84200216B8A190C
:10332000030719D4002917DC002A15DBC00709D1CF
:10333000616939B120468847216A01442162A16A46
:103340000844A062A16809B12046884794F8420069
:1033500040F0080084F84200206B8019206316D4E6
:10336000E16A884200DD2163E16920468847014621
:10337000606A884204D0616262680AB1206890473E
:10338000D4E90B01814202DB2046FFF76BFF28786E
:1033900018B10848FEF763FE03E021460548FEF732
:1033A00070FE0400ADD11BF08BF8686070BD0000AA
:1033B0007C010020EC03002070B5044640680D46F7
:1033C00008B1FFF7F9FF2268002A04D029462046F9
:1033D000BDE87040104770BD89B20BF061BD89B285
:1033E0000BF09ABD2DE9FF4F99B09846DDE926B163
:1033F0002D9816468A464FF00009042811D005285A
:1034000011D0062812D0142870D1012702250024DB
:1034100018FB06F00E901A98401E0D90701E069034
:1034200051E10027F2E701270325F0E701270225F4
:10343000FFF7DAF80068D0F83890E8E7289860439A
:103440000BEB2022299860430AEB202110124FEA4F
:10345000212E7DD41A9B98427ADABEF1000F77DBD9
:10346000B64575DAD2B2CBB2802A05DAC2F17F0254
:103470004FF0FF31520003E001215200A2F58072AB
:103480000992802B05DAC3F17F034FF0FF325B0016
:1034900003E001225B00A3F580730A930EFB080C86
:1034A000199B0CFB053307934318119372D4DDF875
:1034B00034C063456EDC1EEB02036BD4DDF818C02C
:1034C000634567DCDDF81CC011FB05C1CDE915C102
:1034D00012FB08F101FB05C10C91D7B32D99052909
:1034E00005D014290BD0062955D066E0EFE01598D9
:1034F000807807900C9881781698807810E0199A57
:103500000E990EFB08FC02EB41010A180EFB081194
:103510001CF802000790119803FB08F3085C995C03
:10352000079A91420AD00A9A11FB02F20A99C1F550
:103530008073079911FB0321C1F30721079A904279
:103540000DD0099A10FB02F20998C0F5807301E0D2
:103550002FE035E0079810FB0320C0F30720084454
:103560002C994008085527D015980178407801EB30
:103570000020ADF80C000C980178407801EB002099
:10358000ADF8100016980178407801EB0020ADF8F6
:10359000080023E04CE0159801881FFA89F0814269
:1035A00007D00C990988814203D016990988814275
:1035B00003D12C990020085583E0FF210846CEE76F
:1035C00015980088ADF80C0016980088ADF8080032
:1035D0000888ADF810002C98FF210155BDF80C00AB
:1035E000BDF81010884209D1BDF80810884205D1F5
:1035F0002B98BDF80C1000EB440017E00A98C2B2FB
:10360000DDE903100DF030FB04900998C2B2DDE94A
:1036100002010DF029FB7F22029004990DF024FB9A
:1036200000902B98BDF8001000EB4400018048E0AA
:10363000079B93F800C05B780CEB0323DDF8ACC06C
:103640009BB22CF81430DDF8B4C0BCF1050F06D0E5
:10365000BCF1060F06D0BCF1140F09D10AE0079B9C
:103660009B780FE01FFA89FC634501D1002309E034
:10367000FF2307E0199B0EFB083C0E9B00EB430366
:103680001CF8033008B9002905DBDDF834C06045BB
:1036900003D1002901DD09980AE0BEF1000F01D134
:1036A000002A04DB06998E4508D1002A06DD0A9817
:1036B000C0F1FF0010FB03F0010A00E000212C988C
:1036C0000155641C24B22A988442FFF6B7AE1DB09F
:1036D000BDE8F08F10B5818F92B00446A9B168465D
:1036E0000AF0ECFE0B480121CDE90040A08F0B90C1
:1036F00000200890CDE9090107480790074803908A
:1037000068460AF04FFF12B010BD12B0BDE810407D
:103710001CF0A4B9D5FA01087BE50008D7FA010826
:1037200010B50446406882080AD0496821F00301B8
:10373000091D08446060204600F042F8204610BD94
:10374000FEE74068103120F00300884201D30120D9
:103750007047002070472DE9FC47054648680C4635
:1037600020F0030001AA69461BF0CEFEDDE90070DF
:1037700005EBC71101EB80098046D9F83C0060B128
:1037800064B1C4E9020504F10806C46030460421AE
:10379000FFF7FFFB864202D0FEE7FEE7FEE7C9F82F
:1037A0003C400120296900FA07F21143296105EB29
:1037B000870100FA08F04A6902434A61BDE8FC87C4
:1037C00010B5044600F087F8046010BD2DE9FC47F1
:1037D00006464FF000000D0000900746019042D0D1
:1037E0000C46E9460DF10408802907D308461FF06E
:1037F00077FE411F01208840401E0444424649464E
:1038000020461BF081FE009C0A2C2CDA06EB84007B
:10381000019A40694FF0FF3101FA02F210400CD1D9
:10382000641C3069A14008401DD01FF051FE0446C1
:10383000009006EB8000406978B11FF049FE034616
:1038400006EBC411019001EB8000C76B5FB1786893
:1038500020F00300A84201D2FEE7FEE739463046D9
:10386000009A1CF0D1FF3846BDE8FC8710B504462D
:10387000FFF7A6FF416841F002014160606840F037
:103880000100606010BD10B5044600F024F84168E6
:1038900021F002014160606820F00100606010BD0D
:1038A00070B506460D46084600F015F8040010D025
:1038B0002079C0070BD0686880080BD021463046BD
:1038C00000F03CF821462846FFF72AFF0546284627
:1038D00070BDFEE7FEE7426800F1080122F0030038
:1038E000001F0844910800D1FEE7704770B50646F6
:1038F0000C004FF000001ED0F2B120791546C00731
:103900001BD011462046FFF71CFF78B12946204600
:1039100000F025F805462046FFF752FF6868294663
:1039200040F0020068603046FFF715FF2046FFF7C1
:10393000AAFF04F1080070BDFEE7FEE77CB505466E
:1039400048680C4620F0030001AA69461BF0DCFD24
:10395000DDE90023214628461CF056FF7CBD2DE9F9
:10396000F0410D46044600F10801281F0E1860685A
:1039700006F1080720F00300401BA0F104083846B8
:103980000421FFF706FB874200D0FEE7606820F0C5
:10399000030108EB0500001D814200D0FEE73079ED
:1039A00000F0030040EA0800706020F003000C28DB
:1039B00000D2FEE7207900F0030028436060304623
:1039C000FFF754FF3046BDE8F08138B5044612F0E9
:1039D0004DF9054612F07FF90028204605D0218FC9
:1039E000E18616F0F6FE012038BD10F0F7FB002846
:1039F00020461ED010F0BEFA218FE08E81420CD0FE
:103A00002087E08E00906A461C21204610F028FE98
:103A10000128E9D1204616F0DCFE284612F067F9AD
:103A20000428E0D1204615F0A5FA002111F0CAFAC9
:103A3000D9E710F02FFCD6E770B510F00DFE054663
:103A400015F0DEFA044628460CF08EF801462046B2
:103A5000BDE8704000221AF05BB800002DE9F04F7D
:103A60000D4687B00446002115F0B8F960B3294629
:103A7000204600F061FA2946204600F06FF8002148
:103A8000204616F0D5F805900021204616F078F96A
:103A900004900021204615F09CFF012800D0002052
:103AA00080460021204616F0BBFA0746002120463A
:103AB00016F00AF842F2D17906464F450BD1608CD8
:103AC000000508D4012707E007B02846BDE8F04FFD
:103AD0001C2113F039BE0027204615F0FDF9DFF850
:103AE00078A0834620460021BAF8042016F0A2F9F7
:103AF000D5F810C0AB682968CDF800C0CDF80C80AF
:103B0000CDE90131C2B239465846059B09F066FC41
:103B100028834E4504D1608C400501D4012600E085
:103B20000026204615F0BEF9074620460021BAF8C7
:103B3000082016F07FF9C2B2686900246B68E96852
:103B40008DE81B0031463846049B09F047FC68832A
:103B500007B0BDE8F08F0000640000202DE9F34FAE
:103B600081B00C46019808F0BBFE0646019815F09E
:103B7000B3F98246304600F0E3FF2061400013F0C5
:103B800077FC20602069400013F072FC002541F6AC
:103B90009A79A0603AE036F91510DFF8208149459E
:103BA00033D10027DFF818B11FE03946019815F02E
:103BB00015F95946009016F054FBA8B9009808F082
:103BC000A1FE012810D1009808F092FEA8420BD166
:103BD000009816F0F6FA4146404501DA084602E040
:103BE000009816F0EEFA80467F1C019815F008F94F
:103BF000B842DAD8B8F1000F03DBA16821F81580CC
:103C000003E0A168002021F815006D1C2069A8427E
:103C1000C1D800252F46284641F69B784B4615E033
:103C200036F91010414504DB0D44A5F5F8559B3DD0
:103C30000BE0994204D1A16831F81010394403E037
:103C4000A26822F8101039440FB2401C2169814249
:103C5000E6D80021019815F0EBFF2169C1F10102BE
:103C600000FB02A0C01B00B2002800DA00200022E6
:103C70004FF0FF331146C44611E000BF36F9117012
:103C800067450BDBA7F5F8579B3F3AB210FB02F3F1
:103C9000B3FBF5F3A76827F811300B46491C2769D9
:103CA0008F42EBD8002B07DBA91A4143B1FBF5F19A
:103CB000401AA16821F81300BDE8FE8F01E0FFFF64
:103CC000010006002DE9F14F00221146009817F07F
:103CD00011FD0021009815F0B5FE04460021009862
:103CE00016F05AF820440FFA80F90021009815F0D8
:103CF00057FF20440FFA80F8009815F017FE00EBEC
:103D0000090101EB0800DFF898A006B254460098BC
:103D100015F076F8074600252AE0009821498068CA
:103D2000006850F82500834616F09BFAF8B958460B
:103D300016F0A8FD40BB0021584615F01BFE18B335
:103D4000012821D002281FD003281DD00021584669
:103D500016F07EF958B9BBF81A10BBF81600081A0D
:103D6000401C00B24844A04200DB044624B26D1C53
:103D7000BD42D2D3544504D004EB080000B2B04297
:103D800000DC3046BDE8F88F0098BBF91A10B0F996
:103D90001600081A411CA142E8DB0C46E6E70000C9
:103DA00001E0FFFF010004002DE9F84F00228046EA
:103DB000114617F089FC0021404615F043FE0446E9
:103DC0000021404615F094FF20440FFA80FA0021AC
:103DD000404615F045FF20440FFA80F9404615F0A3
:103DE000B3FD00EB090101EB0A00DFF844B105B2B5
:103DF0005C46404615F004F807460021404615F0A1
:103E0000D6FD01284FF0000644D078E0D8F808002D
:103E10004849006850F82600009016F022FAC0BB0E
:103E2000009816F02FFD50B10098B8F91810B0F9AD
:103E30001400091A481CA0422ADB4C1C28E000216F
:103E4000009815F097FD58B1032809D0062807D02F
:103E5000082805D00021009816F0F4F858B118E0B1
:103E60000098B8F91810B0F91400081A411CA142C2
:103E70000EDB0C460CE00098143000900BF025F996
:103E80005044A04204DB00980BF01FF900EB0A0439
:103E900024B2761CBE42B9D35C453BD004EB09008A
:103EA00033E000BFD8F808002249006850F8260027
:103EB000009016F0D6F908BB009816F0E3FC60BB42
:103EC0000021009815F056FD38B3012825D00428AC
:103ED00023D0072821D00021009816F0B9F868B93E
:103EE0000098143000900BF0F0F84844A04204DB36
:103EF00000980BF0EAF800EB090424B2761CBE42ED
:103F0000D0D35C4506D004EB0A0000B2584501D07E
:103F1000A84200DC2846BDE8F88F0098B0F91810D8
:103F2000B8F91400091A481CA042E6DB4C1CE4E76F
:103F300001E0FFFF010004002DE9F84F0C46834625
:103F400009F0D2F8064600F0FBFD6061400013F076
:103F50008FFA60606069400013F08AFA002541F62C
:103F60009A79E0603AE036F91500DFF82881484593
:103F700033D10027DFF820A11FE03946584614F05E
:103F80002DFF5146009016F06CF9A8B9009809F081
:103F900037F9012810D1009809F028F9A8420BD16F
:103FA000009814F0ECFF4146404501DA084602E073
:103FB000009814F0E4FF80467F1C584614F020FF60
:103FC000B842DAD8B8F1000F03DBE16821F81580B8
:103FD00003E0E168002021F815006D1C6069A8422B
:103FE000C1D800252F46284641F69B784B4615E060
:103FF00036F91010414504DB0D44A5F5F8559B3DFD
:104000000BE0994204D1E16831F81010394403E023
:10401000E26822F8101039440FB2401C61698142F5
:10402000E6D80021584615F0ABFE8146584614F0FC
:1040300039FF01466069C0F1010209FB0210C01B93
:1040400000B2002800DA002000224FF0FF331146B2
:10405000C44610E036F9117067450BDBA7F5F85739
:104060009B3F3AB210FB02F3B3FBF5F3E76827F886
:1040700011300B46491C67698F42EBD8002B07DBD8
:10408000A91A4143B1FBF5F1401AE16821F8130088
:10409000BDE8F88F01E0FFFF010006001CB50B88AA
:1040A00004892344ADF800304B8844892344ADF89B
:1040B00002308B8804892344ADF80430C9884389D1
:1040C0001944ADF806104369694698471CBD0000C5
:1040D0002DE9FF4F89B0C8781A9CC0070D4600280B
:1040E00001D0F84800E0F848069001D0F74800E019
:1040F000F748049001D1F54800E0F5484FF010036F
:104100004FF00C0E4FF0080BCDF814006188A28818
:104110004FF0000AA1EB0201504609B25246D4F812
:1041200010C00FE002EB8207E66803EB870816F881
:1041300008805FEAC87809D00BEB8707F65B891B1C
:1041400009B2521C9445EDD8002254E00EEB8707CB
:10415000F65B304400B2F4E7E66802EB820703EB5B
:10416000870CB146CDF820C016F80C60F60741D197
:10417000002872D091FBF0F80EEB8706079639F80D
:10418000066006FB08F60FFA86FCCDF800C04FF07B
:10419000060C0CEB870C042639F90C8006EB87061D
:1041A000DDF800C039F90660E04500DCC44666452C
:1041B00004DC009EC446B04500DC6646DDF800C065
:1041C0000196664506D0DDF820C04FF00108C246D2
:1041D00049F80C80D4F80C80019E0BEB870728F877
:1041E0000760D4F80CC0079F3CF80770C01B891B00
:1041F00000B209B2521C26699642ADD8BAF1000F3E
:1042000084D10021099815F0DEFB012826D0002773
:104210000020ADF80800ADF80C0003A902A8CDE914
:1042200000012089B4F9022003B2287818991BF004
:1042300062FBE878384207D0099814F04DFEBDF8CB
:1042400008100844ADF808000B99099814F0C6FD51
:1042500006464FF4FA682AE1FFE7FEE70127D7E7B1
:104260009C49304615F0FDFF00286FD100213046F3
:1042700015F014FCF0B34FF00009484621690FE037
:10428000E26800EB800352F82320B24207D1E168D4
:1042900000EB80020BEB820031F9009002E0401C41
:1042A0008142EDD8E878C007708C04D020F480609B
:1042B00040F4006003E020F4006040F4806070840B
:1042C00006F11400049982468847484528D03046B4
:1042D00016F07FFAB08AADF80000F08AADF802005F
:1042E000308BADF80400708BADF80600494650469F
:1042F000069A00E010E090476A462921304610F007
:10430000AFF9304614F07CFE3246222110F0A8F9B5
:10431000304616F05EFA03E0708C20F44060708442
:10432000002000906878012811D0022817D1059943
:1043300006F114008847B4F90010491C21F001016E
:10434000081A00EBD07040F34F0007E0A7E0059992
:1043500006F1140088472188081A00B20090E87816
:10436000384208D0049906F114008847BDF80810B7
:10437000081AADF80800304600216B2215F05AFDEE
:104380000FFA80F9304600216C2215F053FD0FFA28
:1043900080FA304615F015FF0190304614F0EFFD1D
:1043A0000146C9F3413001280FD129F4C0404045EE
:1043B0000BDCB0F57A7F01DDC0F57A70019A5043CD
:1043C000642290FBF2F00FFA80F9CAF34130012821
:1043D0000ED12AF4C04040450ADCB0F57A7F01DDF9
:1043E000C0F57A704843642190FBF1F00FFA80FA2F
:1043F000B18A1698F28A411A01EB0900179900B2A6
:104400008A1A02EB0A01EA7809B2D207002A02D01E
:10441000BDF9082000E0009A10440FFA80FA01D09C
:10442000009801E0BDF9080008440FFA80F95AEA43
:1044300009011BD0304616F0CCF9B18A01EB0A0015
:10444000B082318B01EB0A003083F18A01EB090065
:10445000F082718B01EB09007083304616F0B9F9D8
:1044600000234A465146304616F05AFAE878384258
:104470000CD1049906F11400884719990844BDF835
:104480000C100844BDF80810084406E0BDF80C10F4
:1044900019980844BDF80810081AADF80800E87823
:1044A0000BAAC0F38001099808F0E4FC0646002E30
:1044B00004D0DDE90B0188427FF4D2AE0DB0BDE837
:1044C000F08F000053F1000849F10008EFF00008F8
:1044D00097F00008010006002DE9F04F91B00E00A2
:1044E00005463FD02E83286808B113F01FF806EB6D
:1044F0004600062101EB400012F08CFF286040B31B
:10450000022101EB46010144E960042101EB86012F
:104510000144C5E9010101210024012E1AD0F00057
:10452000083012F0A5FF814600EB860000F1040878
:10453000B00000B2A346ADF81000C0F10102801037
:10454000ADF812B00FFA82FA5C46CDF828B00690AA
:10455000ABE0FEE7B4220270E8680480E8684180BE
:10456000A868048011B0BDE8F08F0027BDF81220C4
:10457000BAF1000F07DC032101EB42010AEB010055
:104580000FFA80FA0CE0BDF810100523521A03EB65
:10459000420202EB0A00491E0FFA80FAADF8101031
:1045A000BDF81200401CADF8120004A800F0E9F8B4
:1045B00068B1BDF9100006A9821041F827200AA9A8
:1045C00000F0030041F827007F1C042FCEDB042FEE
:1045D00071D109990698884212D129F8140028F857
:1045E00014B0DDE90A010144DDE90C20104408445F
:1045F00069680855696800010855641C24B252E0D6
:104600000799884219D029F8140028F814B06A686C
:104610000A9810556A6800011055641C069A20B269
:10462000521E29F8102028F810B0DDE90B120A44B8
:104630000D99091D11446A682FE0089929F81400A2
:10464000884228F814B0DDE90A025946104412D015
:104650006A6810556A6800011055641C069A20B2F9
:10466000521E29F8102028F81010DDE90C12114410
:1046700008316A6811E00C9A10446A6810556A683B
:1046800000011055641C069A20B2521E29F8102011
:1046900028F810100D996A680C3111546A680901E4
:1046A0001154401C04B20BF1010B04A800F069F88E
:1046B00000287FF45AAF40F2D32016FB00F109EB3B
:1046C0004402881232F9022C824205D108EB4402DE
:1046D00032F9022C82421AD0A1EB8021B1F5007F81
:1046E00003DC494341F3CF3106E0C1F58061494322
:1046F00041F3CF31C1F10F0129F8140028F814005B
:1047000068680155686809010155641C24B2A01E3F
:104710000EE000BF38F8102029F8142039F81020D6
:1047200028F8142069680A5C0A55641C24B2401EEB
:104730000028EFDAEA680021084611801BE0EA68E9
:1047400022F81100AB6839F8102023F811200AE094
:10475000AE6839F9102036F81130934200DA1A4663
:1047600026F81120401C38F910208A4201D1A042BD
:10477000EEDB491C09B2A042E1DB484612F0C4FE60
:10478000F0E6B0F90210B0F90000814201DC01202E
:1047900070470020704717B581B0022A03D8BDF8D2
:1047A000080004B010BDBDF80830BDF80400D90AF7
:1047B00001EBD0211F2900D31F2161F3CF20C3F3C8
:1047C0004511C0F345142144ADF804003F2900D33E
:1047D0003F2161F34A1003F01F0100F01F03194449
:1047E000ADF804001F2900D31F2161F30400ADF8C8
:1047F0000400FF2A07D0DDE901010CF01BFA00904C
:10480000BDF80000CDE780B2CBE717B581B0022A32
:1048100003D8BDF8080004B010BDBDF80400BDF811
:104820000810C30ACC0A13FB04F35B0963F3CF201F
:1048300000F01F0301F01F0413FB04F35B0963F393
:104840000400C0F34513C1F3451113FB01F18909BD
:1048500061F34A10ADF80400FF2A07D0DDE9010139
:104860000CF0E8F90090BDF80000D4E780B2D2E780
:1048700017B581B0022A03D8BDF8080004B010BDF6
:10488000BDF80830BDF80400D90AA1EBD0210029F9
:1048900000DC002161F3CF20C3F34511C0F34514C0
:1048A000091BADF80400002900DC002161F34A1067
:1048B00003F01F0100F01F03C91AADF8040000291E
:1048C00000DC002161F30400ADF80400FF2A07D0EA
:1048D000DDE901010CF0AEF90090BDF80000CDE774
:1048E00080B2CBE7F8B504460FF0B6FE0646204688
:1048F0000FF074FE0546304614F082FB04462B2D63
:1049000034D00A2D31D111F0B1F910B1007901285C
:104910002BD06946304614F0D9FB94F82C0010F0E7
:104920000C0F30462BD014F0D7FA05460021204654
:1049300015F055F80128BDF9000005EBD5711BD025
:1049400000EB610090FBF5F001B2002900DA0021D4
:10495000608D4FF00102884220461BD019F0D8F834
:1049600000221C2120460FF07BFEF8BD618DBDE8C2
:10497000F840002219F0CCB8C0EB6100E2E714F077
:1049800091FABDF9021000EBD07201EB620191FBCC
:10499000F0F0D9E719F0BCF8F8BD2DE9FF4F89B068
:1049A0000446169EDDE919577000DDF86090DDF8C9
:1049B00028A00FFA80FBB9F1040F22D0B9F1060F3D
:1049C0001FD0B9F1050F5CD0B9F1140F56D1B4F96D
:1049D0000000B4F90210CDF80CB006FB01030AEB9D
:1049E00043020092E2884FF00008511A491C0FFA66
:1049F00081F9A188081A401C0FFA80FA4FEA4A0B85
:104A000081E020460AF053FB01460390384612F03D
:104A1000C9FEB4F90000B4F90280A18806FB0802BF
:104A2000081A401C00B2069040000AEB420A2E46CB
:104A300002900CE051463046029A12F0B3FD0698FF
:104A400008F10108DA4406EB40060FFA88F8B4F9D9
:104A500006004045EEDAB9F1060F0FD100224FF4FF
:104A6000FC60ADF80000114605E035F811308342D6
:104A700000D17A54491C039B9942F6D30DB0BDE88E
:104A8000F08FB4F90010B4F9023006FB031000EB0C
:104A9000400202EB0A00A288511A491C0AB2B11A5C
:104AA00001EB41010EB2E188C91A491C0CB2002386
:104AB00017E000210DE090F802C007F801C010F8DF
:104AC00001CB10F8028B0CEB082C25F811C0491C07
:104AD00009B29142EFDB5B1C05EB42051744304401
:104AE0001BB2A342E5DBC9E75A462846009912F0FB
:104AF00059FD0099039805EB4A050844009008F118
:104B000001000FFA80F8C845EEDBDDE90A014A0032
:104B10000C9902FB0100B4F90010B4F9022006FB65
:104B200002110D18002408E052462946384612F0BA
:104B300039FD641C5744354424B24C45F4DB9DE7F1
:104B40000146002041F6FF7200E0401C31F91030B0
:104B50009342FAD170471CB5044690F8540000F017
:104B6000010088422DD094F8540011B140F00100AA
:104B700001E020F0010084F8540004F14801684687
:104B80000AF07AFA606ABDF80010828A1144ADF822
:104B90000010BDF80210C08A0844ADF80200606A37
:104BA000BDF80410808A0844ADF80400606ABDF8BE
:104BB0000610C08A0844ADF806006946204615F084
:104BC0002BFE1CBD08B5084611460BF0F4FE009004
:104BD000BDF8000008BD2DE9F04F0746C87A89B03E
:104BE00015460E46022803D8012009B0BDE8F08F13
:104BF00018463269B168FDF771F9041EF5D0207DC1
:104C000000F01F0010F02AFA4FF4807808B1062057
:104C100011E0207D00F01F000E2806D014280AD0D5
:104C200010F00CFA30B1052005E030884FF00E0985
:104C300030B902E00420814606E07088404503D088
:104C400000204FF00509A061226A22B129463846AA
:104C50001CF0F5F9B7E0A069E0B3294602A80AF014
:104C6000D5F9B6F9003013B97088404529D0A88825
:104C700029886A88401A401C01B2E88806F1040CB1
:104C8000801A401C02B27088CDE9000C02A8FDF722
:104C90006FF8BDF8080029880844ADF80800BDF891
:104CA0000A1068880844ADF80A00BDF80C0029888D
:104CB0000844ADF80C00BDF80E1068880844ADF843
:104CC0000E0002AA04A8B968FCF705FE00287AD0F5
:104CD00004A800E00DE0D7F80880B860CDF8009097
:104CE0002A4631463846A3690CF08EFEC7F8088084
:104CF00069E02A4604A8B968FCF7EDFDE0B3BDF809
:104D00001400BDF81010401A401C0FFA80FB0BEB8A
:104D10004B0012F0ADFB039004A901A8D7F808A03E
:104D20000AF074F9012101A80AF00EFABDF9100089
:104D3000B5F90010BDF91280401A0690B5F90200CD
:104D4000A8EB000536E001AA514607A8FCF7C3FD11
:104D500070B30398009006985B4601B22AB22046D1
:104D600010F088FD01280ED0204610F0D8FC0398E2
:104D700012F0CAFB204600E025E010F0D0FC002035
:104D8000C7F808A031E707A8B860CDF8009001AADD
:104D900031463846039B0CF037FEBDF80600401C38
:104DA000ADF80600BDF80A00401CADF80A006D1C05
:104DB00008F10108BDF916004045C4DAC7F808A09B
:104DC000039812F0A1FB204610F0A9FC0CE70000AC
:104DD0002DE9F0418046104817460D460078B0B1E5
:104DE000B5F902600FE000BFB5F9004006E03A886F
:104DF000B1B2A0B2FCF76CF9641CBF1CB5F9040099
:104E0000A042F4DA761CB5F90600B042ECDA40466E
:104E1000BDE8F0410CF03CBB1402002070B5054623
:104E200010F024FF0646286B19F044FB3168898B8B
:104E3000884223D295F83C006C6A10F0030105D03B
:104E40006420012906D0022909D106E0002060F380
:104E50000F0404E060F3174401E060F31F64304680
:104E600010F0C9FF214628460CF0DEF930B10022CF
:104E70001C2128460FF0F4FB012803D119F020FB78
:104E80002863012070BD00002DE9F04F99B007465E
:104E900014468A4614A80CF093FB4FF4A021384620
:104EA00014F071FD9DF85D1060F382018DF85D10C6
:104EB000A1882088091A491C09B201EBD1714E1052
:104EC0003044ADF86000608800213044ADF86200E5
:104ED000384614F029FE8146514602A813F0BCFD65
:104EE00014A80A904FF400300F902F480390002030
:104EF000049007F130008346FDF7CAF84EE02079B0
:104F0000032847D1208BADF85000208AADF852001D
:104F10006079FD2801D9484602E010FB09F0000A3B
:104F20008DF85C002568B5F92030E88B18440090B6
:104F3000D5E90512A06812F04FFA8046B5F9203085
:104F4000E88B18440090D5E90512E06812F044FAA5
:104F50001FFA88F5ADF854501FFA80F8ADF8568066
:104F6000608B02AA3044ADF8440018A80B901A21B7
:104F7000139438460FF074FBCDE90058BDF8443067
:104F800018AA14A950460CF00BFB02AA1B213846A4
:104F90000FF066FB21465846FDF777F80400AED1C6
:104FA00019B0BDE8F08F0000D84302082DE9F74F93
:104FB000C878A0B00C4602287DD9114601A80AF095
:104FC0001CF8B4F92000012829DD94F82200FD28FE
:104FD00025D3208818B394F82300BDF804104008A6
:104FE000C0F380021144ADF80410BDF80610C0F300
:104FF00040000844ADF8060094F82310BDF80800FE
:105000004908C1F3C001401AADF8080094F8231014
:10501000BDF80A00C1F34001401AADF80A0020981B
:1050200001A9826805A8FCF756FC002843D0E07B64
:1050300010F0070619D0E088ADF80000BDF80000B8
:105040006189884200D1002601A80DF02FFA074699
:105050001C210EA8FBF714FAA0788DF85100BDF8BA
:105060000000ADF840001FB105E060680090E5E782
:10507000208800B9EEB3E078FD2800D3FF208346F6
:10508000BDF80800BDF80410401A401C0FFA80FA61
:10509000BDF80A00BDF80610401A401C01B289464E
:1050A0005046CA4500DB0846B4F90050B5EB600F26
:1050B00000DB451000E043E0BDF81810BDF8140017
:1050C000081A401C0FFA80F84FF0FF301D900020A6
:1050D0000790002D00DC87B1404612F0C9F9079017
:1050E00000232A4601A916A80DF04CFC002116A8A1
:1050F00000E01CE00CF0FAFF1D90BDF81400ADF8C4
:105100000C00BDF81800ADF810000798119003A826
:105110000E901390FF208DF850004A465146A01D76
:105120000FF0DAFD040018D0022E0CD015E001A813
:105130000E90E0788DF850000EA920980DF0E8FE52
:1051400023B0BDE8F08FBDF91410A06800EB41005A
:10515000BDF90410A0EB41000F90002F7DD0BDF9E8
:10516000165027E02FB2ADF80E70ADF8127042461F
:105170005946079812F0B6FABDF9141043463A465C
:1051800007980DF055F98DF84800012802D102204A
:105190008DF84800012E08D1BDF90610A068691AE3
:1051A00000EB41000088ADF840000EA920980DF0FA
:1051B000AFFE6D1CBDF91A00A842D3DAB7E000BFFC
:1051C000BDF80600BDF9161038440FFA80F9BDF895
:1051D0000A00C01B0FFA80FA494503DDBDF91A1019
:1051E000514544DB42465946079812F07BFABDF917
:1051F0000C1043464A4607980DF01AF98DF84800FE
:10520000012802D102208DF84800BDF91610494549
:1052100013DCADF80E90ADF81290012E09D1BDF956
:105220000620A168A9EB020001EB40000088ADF860
:1052300040000EA920980DF06BFEBDF91A105145E3
:1052400015DBADF80EA0ADF812A0012E0BD1BDF903
:105250000600A268AAEB000000E009E002EB4000B3
:105260000088ADF840000EA920980DF051FE7F1C7B
:10527000AF42A5DBBDF80400ADF87800BDF808002A
:10528000ADF87C00BDF806002844ADF87A00BDF802
:105290000A00401BADF87E001EA80DF007F9074676
:1052A00030430CD001208DF84800BDF90A008DF87C
:1052B00050B0A0EB0509BDF90600054435E0BDF886
:1052C00006008DF850B02844ADF80E00BDF80A0075
:1052D0000EA9401BADF812000020119020980DF08F
:1052E00017FE24E06FB142465946079812F0FAF9CA
:1052F000BDF9141043462AB207980DF099F88DF8BD
:105300004800ADF80E50ADF81250012E08D1BDF98D
:105310000600A168281A01EB40000088ADF84000A3
:105320000EA920980DF0F4FD6D1C4D45DADD0798AF
:1053300008B112F0E9F81D98401C05D01D980DF039
:10534000CDFB16A80DF096F8002C3FF4F9AE2046E0
:105350000FF0BCFCF4E62DE9F0410646086992B076
:1053600015460C4600287DD0A07E02287AD9294611
:105370000EA8B268FCF7AFFA002873D00EA8D6F8D2
:105380000880B060206910F05FFC022806D06946F2
:10539000206910F0E5F9012849D0C9E0002741F65D
:1053A000FF70CDE900700297D4E904123B4610A8C3
:1053B00019F096FB284609F08EFE01462A88BDF9B1
:1053C000400001EBD17102EB610100EBD072A1EB67
:1053D00062010844401EADF81000ADF80C102846DC
:1053E00009F053FE01466A88BDF9420001EBD17114
:1053F00002EB610100EBD072A1EB62010844401E98
:10540000ADF81200ADF80E1005A80CF0BFFD6069F4
:105410000590208BADF82000A07E8DF82E0000971F
:1054200003AA05A9304623690CF010FB80E005A80B
:105430000CF0F2FAA0788DF82000208BADF81C005B
:10544000E07E8DF81E00A07E8DF81F00207F4FF0BB
:10545000FF3740B100996888ADF8060007EB51515D
:1054600008445DE066E0284609F035FE298800EB37
:10547000D07001EB60000099C1F38A21A0EB5100CC
:10548000ADF80400284609F000FE698800EBD070F2
:1054900001EB60010098A1EB9051C0F38A22ADF8B6
:1054A0000610BDF80430521E1A4407EB5050ADF8F8
:1054B00008200844ADF80A0001AA05A9304623696E
:1054C0000CF076FA34E000992888C1F38A21ADF80F
:1054D0000400491E084410E001AA05A930462369CA
:1054E0000CF066FA0098BDF80410C0F38A2001445D
:1054F000ADF80410BDF808100844ADF80800BDF977
:105500000400B5F904108842E6DDBDF806100098E5
:1055100001EB5051ADF80610BDF80A1001EB5050E8
:10552000ADF80A00BDF90600B5F906108842CADDDB
:10553000C6F8088012B0BDE8F081F0B5074691F8D2
:10554000220087B016460C4602286BD9208C002812
:1055500068D094F8230010F03E0F63D0C00761D1EB
:10556000B08831887288401A401C01B2F088B4F9C2
:105570000050801A401C00B2814200DA0846B5EBA8
:10558000600F00DD4510314604A809F036FD94F89F
:105590002300BDF91020C0F344014807B4F92000EE
:1055A00001D4284440421044ADF810000807BDF96A
:1055B0001420B4F9200001D428444042101AADF858
:1055C000140094F82300BDF9121040088007B4F9C4
:1055D000200001D4284440420844ADF8120094F859
:1055E0002300BDF916104008C007B4F9200001D10E
:1055F00028444042081AADF81600208C281A00B240
:10560000002800DA0020A27894F82210CDE90212D6
:10561000E18BADF8041000902B4604AA31463846C1
:1056200000F002F807B0F0BD2DE9FF4FA9B01D460C
:10563000DDE93879DDF8D88016460C46FF2F00D317
:10564000FF2708460CF032FF2690284350EA080056
:1056500074D029982146826808A8FCF73CF90028F4
:1056600073D0BDF82400BDF82010401A401C00B2D1
:1056700004901C210AA812F067F8049811F0F8FEB3
:105680000D904FF0FF302490002D0ADD00232A46B4
:10569000214615A80DF076F9002115A80CF026FD7D
:1056A00024900123424631461BA80DF06BF90021DE
:1056B0001BA80CF01BFD259001A80A900F90BDF8C7
:1056C000DC008DF84070ADF830008DF84190B4F9F1
:1056D00000002290B6F900304119994200DC1946C9
:1056E000B4F904000FFA81F92190B6F90410421BB5
:1056F0008A4200DB0A460FFA82F8B4F902E0B6F9F2
:1057000002200EEB05009246504500DC1046B4F92D
:1057100006B007B2B6F90620ABEB0500904200DBFD
:10572000104600B20590A8EB0900401C00B227907B
:10573000D6450DDC01200CE000E006E00097324683
:105740002146379B299800F0B8F92DB0BDE8F08FBD
:1057500000208246934501DB012000E000208346C3
:105760002698D8B3BDF82000ADF80400BDF8240099
:10577000ADF80800BDF9224022E000BFBAF1000FE9
:1057800001D1A7421BDCBBF1000F02D10598A0425A
:105790001ADB25B2ADF80650ADF80A5004990D9801
:1057A00012F000F8BDF920102A46049B0D980CF069
:1057B0003FFE8DF838000AA929980DF0A9FB641C5A
:1057C000BDF92600A042D9DA1BA80CF053FE25989B
:1057D0000DF084F92498401C07D000E009E015A8DA
:1057E0000CF048FE24980DF079F90D9811F08CFE1C
:1057F000ABE72298984201DC012000E000201390E2
:105800002198884201DB012100E000210120009065
:1058100013981291084000EA0A0010EA0B0F04D016
:105820002798322801DA00200090012000998DF895
:1058300038001AEA010F0ED0ADF80490ADF80880D8
:105840006088ADF8060070880AA9401EADF80A000D
:1058500029980DF05DFB00991BEA010F0ED0ADF801
:105860000490ADF80880F0880AA9401CADF8060045
:10587000E088ADF80A0029980DF04AFB139878B13A
:105880002088ADF804003088ADF80670401EADF8F1
:1058900008000598ADF80A000AA929980DF038FB10
:1058A000129878B1B0880AA9401CADF80400A0880D
:1058B000ADF808000598ADF80670ADF80A00299813
:1058C0000DF026FB0098C0B1BDF92400BDF92010F1
:1058D000A9F10102ADF80410904200DB1046ADF8CA
:1058E0000800401A401C05B2002D70DD139850EAE4
:1058F0000A0066D0BDF9224061E0BDF82000ADF895
:105900000400BDF82400ADF80800B6F90200B4F9AF
:105910000210401AA84200DB05460FFA85F8002560
:1059200033E06088284406B2E088401B07B2BDF926
:105930002200B04203DDBDF92600B84224DB049901
:105940000D9811F02FFFBDF904103246049B0D98FD
:105950000CF06EFD8DF83800BDF92200B04207DC76
:10596000ADF80660ADF80A600AA929980DF0D0FAE2
:10597000BDF92600B84207DBADF80670ADF80A7035
:105980000AA929980DF0C4FA6D1C4545C9DB8DE0C4
:1059900026B2ADF80660ADF80A6029460D9811F000
:1059A00001FFBDF904102B4632460D980CF040FD66
:1059B0008DF838000AA929980DF0AAFA641CA742AC
:1059C000E6DC139850EA0B001DD0059C16E01AE0A7
:1059D00026B2ADF80660ADF80A6029460D9811F0C0
:1059E000E1FEBDF904102B4632460D980CF020FD67
:1059F0008DF838000AA929980DF08AFABDF9260019
:105A0000641CA042E4DABDF9200008F101018842DB
:105A100000DC0846BDF82410ADF80400081A401C4C
:105A200005B2ADF80810002D40DD129850EA0A00CA
:105A30001BD0BDF9224016E026B2ADF80660ADF8E5
:105A40000A6029460D9811F0ADFEBDF904102B46F1
:105A500032460D980CF0ECFC8DF838000AA9299814
:105A60000DF056FA641CA742E6DC129850EA0B00CF
:105A70001CD0059C15E026B2ADF80660ADF80A60B2
:105A800029460D9811F08EFEBDF904102B463246C2
:105A90000D980CF0CDFC8DF838000AA929980DF06E
:105AA00037FABDF92600641CA042E4DA1BA80CF00A
:105AB000E1FC25980DF012F88FE62DE9FF478EB036
:105AC0000C46824615461C2102A81A9E11F03CFE87
:105AD000CDF808D0BDF84400ADF810008DF8206076
